{
  "address": "0xe5C6Ee433ab82f5CfF08BDC9Cf7300c888eb18fA",
  "abi": [
    {
      "anonymous": false,
      "inputs": [
        {
          "indexed": false,
          "internalType": "uint8",
          "name": "version",
          "type": "uint8"
        }
      ],
      "name": "Initialized",
      "type": "event"
    },
    {
      "anonymous": false,
      "inputs": [
        {
          "indexed": true,
          "internalType": "address",
          "name": "previousOwner",
          "type": "address"
        },
        {
          "indexed": true,
          "internalType": "address",
          "name": "newOwner",
          "type": "address"
        }
      ],
      "name": "OwnershipTransferred",
      "type": "event"
    },
    {
      "inputs": [
        {
          "internalType": "enum SharedStructs.ServiceType",
          "name": "serviceType",
          "type": "uint8"
        }
      ],
      "name": "addUserToList",
      "outputs": [],
      "stateMutability": "nonpayable",
      "type": "function"
    },
    {
      "inputs": [
        {
          "internalType": "address",
          "name": "userAddress",
          "type": "address"
        }
      ],
      "name": "getUser",
      "outputs": [
        {
          "components": [
            {
              "internalType": "address",
              "name": "userAddress",
              "type": "address"
            },
            {
              "internalType": "string",
              "name": "metadataCID",
              "type": "string"
            },
            {
              "internalType": "string",
              "name": "url",
              "type": "string"
            },
            {
              "internalType": "enum SharedStructs.ServiceType[]",
              "name": "roles",
              "type": "uint8[]"
            }
          ],
          "internalType": "struct SharedStructs.User",
          "name": "",
          "type": "tuple"
        }
      ],
      "stateMutability": "view",
      "type": "function"
    },
    {
      "inputs": [],
      "name": "initialize",
      "outputs": [],
      "stateMutability": "nonpayable",
      "type": "function"
    },
    {
      "inputs": [],
      "name": "owner",
      "outputs": [
        {
          "internalType": "address",
          "name": "",
          "type": "address"
        }
      ],
      "stateMutability": "view",
      "type": "function"
    },
    {
      "inputs": [
        {
          "internalType": "enum SharedStructs.ServiceType",
          "name": "serviceType",
          "type": "uint8"
        }
      ],
      "name": "removeUserFromList",
      "outputs": [],
      "stateMutability": "nonpayable",
      "type": "function"
    },
    {
      "inputs": [],
      "name": "renounceOwnership",
      "outputs": [],
      "stateMutability": "nonpayable",
      "type": "function"
    },
    {
      "inputs": [
        {
          "internalType": "enum SharedStructs.ServiceType",
          "name": "serviceType",
          "type": "uint8"
        }
      ],
      "name": "showUsersInList",
      "outputs": [
        {
          "internalType": "address[]",
          "name": "",
          "type": "address[]"
        }
      ],
      "stateMutability": "view",
      "type": "function"
    },
    {
      "inputs": [
        {
          "internalType": "address",
          "name": "newOwner",
          "type": "address"
        }
      ],
      "name": "transferOwnership",
      "outputs": [],
      "stateMutability": "nonpayable",
      "type": "function"
    },
    {
      "inputs": [
        {
          "internalType": "string",
          "name": "metadataCID",
          "type": "string"
        },
        {
          "internalType": "string",
          "name": "url",
          "type": "string"
        },
        {
          "internalType": "enum SharedStructs.ServiceType[]",
          "name": "roles",
          "type": "uint8[]"
        }
      ],
      "name": "updateUser",
      "outputs": [
        {
          "components": [
            {
              "internalType": "address",
              "name": "userAddress",
              "type": "address"
            },
            {
              "internalType": "string",
              "name": "metadataCID",
              "type": "string"
            },
            {
              "internalType": "string",
              "name": "url",
              "type": "string"
            },
            {
              "internalType": "enum SharedStructs.ServiceType[]",
              "name": "roles",
              "type": "uint8[]"
            }
          ],
          "internalType": "struct SharedStructs.User",
          "name": "",
          "type": "tuple"
        }
      ],
      "stateMutability": "nonpayable",
      "type": "function"
    }
  ],
  "transactionHash": "0x5d950bae8ad11cba963c31c630dbe5d37895da05dc2250fd181a0bc639067cef",
  "args": [],
  "numDeployments": 1,
  "solcInputHash": "4286bdc1be3c06de3f23b5ebaf2251b6",
  "bytecode": "0x608060405234801561001057600080fd5b5061002d61002261003260201b60201c565b61003a60201b60201c565b6100fe565b600033905090565b60008060009054906101000a900473ffffffffffffffffffffffffffffffffffffffff169050816000806101000a81548173ffffffffffffffffffffffffffffffffffffffff021916908373ffffffffffffffffffffffffffffffffffffffff1602179055508173ffffffffffffffffffffffffffffffffffffffff168173ffffffffffffffffffffffffffffffffffffffff167f8be0079c531659141344cd1fd0a4f28419497f9722a3daafe3b4186f6b6457e060405160405180910390a35050565b6120e8806200010e6000396000f3fe608060405234801561001057600080fd5b50600436106100935760003560e01c8063a15dcc8a11610066578063a15dcc8a146100fa578063a7f96f061461012a578063aeb5ec0114610146578063ebbbca2714610162578063f2fde38b1461019257610093565b80636f77926b14610098578063715018a6146100c85780638129fc1c146100d25780638da5cb5b146100dc575b600080fd5b6100b260048036038101906100ad919061123d565b6101ae565b6040516100bf91906114a0565b60405180910390f35b6100d061040e565b005b6100da610422565b005b6100e461055d565b6040516100f191906114d1565b60405180910390f35b610114600480360381019061010f9190611511565b610586565b60405161012191906115ed565b60405180910390f35b610144600480360381019061013f9190611511565b61064b565b005b610160600480360381019061015b9190611511565b610967565b005b61017c6004803603810190610177919061180c565b610b6d565b60405161018991906114a0565b60405180910390f35b6101ac60048036038101906101a7919061123d565b610c8e565b005b6101b66110ba565b600160008373ffffffffffffffffffffffffffffffffffffffff1673ffffffffffffffffffffffffffffffffffffffff1681526020019081526020016000206040518060800160405290816000820160009054906101000a900473ffffffffffffffffffffffffffffffffffffffff1673ffffffffffffffffffffffffffffffffffffffff1673ffffffffffffffffffffffffffffffffffffffff168152602001600182018054610266906118e2565b80601f0160208091040260200160405190810160405280929190818152602001828054610292906118e2565b80156102df5780601f106102b4576101008083540402835291602001916102df565b820191906000526020600020905b8154815290600101906020018083116102c257829003601f168201915b505050505081526020016002820180546102f8906118e2565b80601f0160208091040260200160405190810160405280929190818152602001828054610324906118e2565b80156103715780601f1061034657610100808354040283529160200191610371565b820191906000526020600020905b81548152906001019060200180831161035457829003601f168201915b50505050508152602001600382018054806020026020016040519081016040528092919081815260200182805480156103fe57602002820191906000526020600020906000905b82829054906101000a900460ff1660038111156103d8576103d7611335565b5b815260200190600101906020826000010492830192600103820291508084116103b85790505b5050505050815250509050919050565b610416610d11565b6104206000610d8f565b565b60008060159054906101000a900460ff1615905080801561045557506001600060149054906101000a900460ff1660ff16105b80610484575061046430610e53565b15801561048357506001600060149054906101000a900460ff1660ff16145b5b6104c3576040517f08c379a00000000000000000000000000000000000000000000000000000000081526004016104ba90611996565b60405180910390fd5b6001600060146101000a81548160ff021916908360ff1602179055508015610501576001600060156101000a81548160ff0219169083151502179055505b801561055a5760008060156101000a81548160ff0219169083151502179055507f7f26b83ff96e1f2b6a682f133852f6798a09c465da95921460cefb384740249860016040516105519190611a08565b60405180910390a15b50565b60008060009054906101000a900473ffffffffffffffffffffffffffffffffffffffff16905090565b60606002600083600381111561059f5761059e611335565b5b60038111156105b1576105b0611335565b5b815260200190815260200160002080548060200260200160405190810160405280929190818152602001828054801561063f57602002820191906000526020600020905b8160009054906101000a900473ffffffffffffffffffffffffffffffffffffffff1673ffffffffffffffffffffffffffffffffffffffff16815260200190600101908083116105f5575b50505050509050919050565b600073ffffffffffffffffffffffffffffffffffffffff16600160003273ffffffffffffffffffffffffffffffffffffffff1673ffffffffffffffffffffffffffffffffffffffff16815260200190815260200160002060000160009054906101000a900473ffffffffffffffffffffffffffffffffffffffff1673ffffffffffffffffffffffffffffffffffffffff160361071c576040517f08c379a000000000000000000000000000000000000000000000000000000000815260040161071390611a6f565b60405180910390fd5b6000806107298332610e76565b915091508061076d576040517f08c379a000000000000000000000000000000000000000000000000000000000815260040161076490611adb565b60405180910390fd5b60008290505b60016002600086600381111561078c5761078b611335565b5b600381111561079e5761079d611335565b5b8152602001908152602001600020805490506107ba9190611b34565b8110156108e557600260008560038111156107d8576107d7611335565b5b60038111156107ea576107e9611335565b5b81526020019081526020016000206001826108059190611b68565b8154811061081657610815611b9c565b5b9060005260206000200160009054906101000a900473ffffffffffffffffffffffffffffffffffffffff166002600086600381111561085857610857611335565b5b600381111561086a57610869611335565b5b8152602001908152602001600020828154811061088a57610889611b9c565b5b9060005260206000200160006101000a81548173ffffffffffffffffffffffffffffffffffffffff021916908373ffffffffffffffffffffffffffffffffffffffff16021790555080806108dd90611bcb565b915050610773565b50600260008460038111156108fd576108fc611335565b5b600381111561090f5761090e611335565b5b815260200190815260200160002080548061092d5761092c611c13565b5b6001900381819060005260206000200160006101000a81549073ffffffffffffffffffffffffffffffffffffffff02191690559055505050565b600073ffffffffffffffffffffffffffffffffffffffff16600160003273ffffffffffffffffffffffffffffffffffffffff1673ffffffffffffffffffffffffffffffffffffffff16815260200190815260200160002060000160009054906101000a900473ffffffffffffffffffffffffffffffffffffffff1673ffffffffffffffffffffffffffffffffffffffff1603610a38576040517f08c379a0000000000000000000000000000000000000000000000000000000008152600401610a2f90611a6f565b60405180910390fd5b6000610a448232610e76565b9150508015610a88576040517f08c379a0000000000000000000000000000000000000000000000000000000008152600401610a7f90611cb4565b60405180910390fd5b610a928232610f96565b610ad1576040517f08c379a0000000000000000000000000000000000000000000000000000000008152600401610ac890611d20565b60405180910390fd5b60026000836003811115610ae857610ae7611335565b5b6003811115610afa57610af9611335565b5b8152602001908152602001600020329080600181540180825580915050600190039060005260206000200160009091909190916101000a81548173ffffffffffffffffffffffffffffffffffffffff021916908373ffffffffffffffffffffffffffffffffffffffff1602179055505050565b610b756110ba565b600060405180608001604052803273ffffffffffffffffffffffffffffffffffffffff16815260200186815260200185815260200184815250905080600160003273ffffffffffffffffffffffffffffffffffffffff1673ffffffffffffffffffffffffffffffffffffffff16815260200190815260200160002060008201518160000160006101000a81548173ffffffffffffffffffffffffffffffffffffffff021916908373ffffffffffffffffffffffffffffffffffffffff1602179055506020820151816001019081610c4c9190611ee2565b506040820151816002019081610c629190611ee2565b506060820151816003019080519060200190610c7f9291906110f8565b50905050809150509392505050565b610c96610d11565b600073ffffffffffffffffffffffffffffffffffffffff168173ffffffffffffffffffffffffffffffffffffffff1603610d05576040517f08c379a0000000000000000000000000000000000000000000000000000000008152600401610cfc90612026565b60405180910390fd5b610d0e81610d8f565b50565b610d196110b2565b73ffffffffffffffffffffffffffffffffffffffff16610d3761055d565b73ffffffffffffffffffffffffffffffffffffffff1614610d8d576040517f08c379a0000000000000000000000000000000000000000000000000000000008152600401610d8490612092565b60405180910390fd5b565b60008060009054906101000a900473ffffffffffffffffffffffffffffffffffffffff169050816000806101000a81548173ffffffffffffffffffffffffffffffffffffffff021916908373ffffffffffffffffffffffffffffffffffffffff1602179055508173ffffffffffffffffffffffffffffffffffffffff168173ffffffffffffffffffffffffffffffffffffffff167f8be0079c531659141344cd1fd0a4f28419497f9722a3daafe3b4186f6b6457e060405160405180910390a35050565b6000808273ffffffffffffffffffffffffffffffffffffffff163b119050919050565b60008060008060005b60026000886003811115610e9657610e95611335565b5b6003811115610ea857610ea7611335565b5b815260200190815260200160002080549050811015610f86578573ffffffffffffffffffffffffffffffffffffffff1660026000896003811115610eef57610eee611335565b5b6003811115610f0157610f00611335565b5b81526020019081526020016000208281548110610f2157610f20611b9c565b5b9060005260206000200160009054906101000a900473ffffffffffffffffffffffffffffffffffffffff1673ffffffffffffffffffffffffffffffffffffffff1603610f735780925060019150610f86565b8080610f7e90611bcb565b915050610e7f565b5081819350935050509250929050565b6000806000905060005b600160008573ffffffffffffffffffffffffffffffffffffffff1673ffffffffffffffffffffffffffffffffffffffff168152602001908152602001600020600301805490508110156110a75784600381111561100057610fff611335565b5b600160008673ffffffffffffffffffffffffffffffffffffffff1673ffffffffffffffffffffffffffffffffffffffff168152602001908152602001600020600301828154811061105457611053611b9c565b5b90600052602060002090602091828204019190069054906101000a900460ff16600381111561108657611085611335565b5b0361109457600191506110a7565b808061109f90611bcb565b915050610fa0565b508091505092915050565b600033905090565b6040518060800160405280600073ffffffffffffffffffffffffffffffffffffffff1681526020016060815260200160608152602001606081525090565b82805482825590600052602060002090601f0160209004810192821561119d5791602002820160005b8382111561116e57835183826101000a81548160ff0219169083600381111561114d5761114c611335565b5b02179055509260200192600101602081600001049283019260010302611121565b801561119b5782816101000a81549060ff021916905560010160208160000104928301926001030261116e565b505b5090506111aa91906111ae565b5090565b5b808211156111c75760008160009055506001016111af565b5090565b6000604051905090565b600080fd5b600080fd5b600073ffffffffffffffffffffffffffffffffffffffff82169050919050565b600061120a826111df565b9050919050565b61121a816111ff565b811461122557600080fd5b50565b60008135905061123781611211565b92915050565b600060208284031215611253576112526111d5565b5b600061126184828501611228565b91505092915050565b611273816111ff565b82525050565b600081519050919050565b600082825260208201905092915050565b60005b838110156112b3578082015181840152602081019050611298565b60008484015250505050565b6000601f19601f8301169050919050565b60006112db82611279565b6112e58185611284565b93506112f5818560208601611295565b6112fe816112bf565b840191505092915050565b600081519050919050565b600082825260208201905092915050565b6000819050602082019050919050565b7f4e487b7100000000000000000000000000000000000000000000000000000000600052602160045260246000fd5b6004811061137557611374611335565b5b50565b600081905061138682611364565b919050565b600061139682611378565b9050919050565b6113a68161138b565b82525050565b60006113b8838361139d565b60208301905092915050565b6000602082019050919050565b60006113dc82611309565b6113e68185611314565b93506113f183611325565b8060005b8381101561142257815161140988826113ac565b9750611414836113c4565b9250506001810190506113f5565b5085935050505092915050565b6000608083016000830151611447600086018261126a565b506020830151848203602086015261145f82826112d0565b9150506040830151848203604086015261147982826112d0565b9150506060830151848203606086015261149382826113d1565b9150508091505092915050565b600060208201905081810360008301526114ba818461142f565b905092915050565b6114cb816111ff565b82525050565b60006020820190506114e660008301846114c2565b92915050565b600481106114f957600080fd5b50565b60008135905061150b816114ec565b92915050565b600060208284031215611527576115266111d5565b5b6000611535848285016114fc565b91505092915050565b600081519050919050565b600082825260208201905092915050565b6000819050602082019050919050565b6000611576838361126a565b60208301905092915050565b6000602082019050919050565b600061159a8261153e565b6115a48185611549565b93506115af8361155a565b8060005b838110156115e05781516115c7888261156a565b97506115d283611582565b9250506001810190506115b3565b5085935050505092915050565b60006020820190508181036000830152611607818461158f565b905092915050565b600080fd5b600080fd5b7f4e487b7100000000000000000000000000000000000000000000000000000000600052604160045260246000fd5b611651826112bf565b810181811067ffffffffffffffff821117156116705761166f611619565b5b80604052505050565b60006116836111cb565b905061168f8282611648565b919050565b600067ffffffffffffffff8211156116af576116ae611619565b5b6116b8826112bf565b9050602081019050919050565b82818337600083830152505050565b60006116e76116e284611694565b611679565b90508281526020810184848401111561170357611702611614565b5b61170e8482856116c5565b509392505050565b600082601f83011261172b5761172a61160f565b5b813561173b8482602086016116d4565b91505092915050565b600067ffffffffffffffff82111561175f5761175e611619565b5b602082029050602081019050919050565b600080fd5b600061178861178384611744565b611679565b905080838252602082019050602084028301858111156117ab576117aa611770565b5b835b818110156117d457806117c088826114fc565b8452602084019350506020810190506117ad565b5050509392505050565b600082601f8301126117f3576117f261160f565b5b8135611803848260208601611775565b91505092915050565b600080600060608486031215611825576118246111d5565b5b600084013567ffffffffffffffff811115611843576118426111da565b5b61184f86828701611716565b935050602084013567ffffffffffffffff8111156118705761186f6111da565b5b61187c86828701611716565b925050604084013567ffffffffffffffff81111561189d5761189c6111da565b5b6118a9868287016117de565b9150509250925092565b7f4e487b7100000000000000000000000000000000000000000000000000000000600052602260045260246000fd5b600060028204905060018216806118fa57607f821691505b60208210810361190d5761190c6118b3565b5b50919050565b600082825260208201905092915050565b7f496e697469616c697a61626c653a20636f6e747261637420697320616c72656160008201527f647920696e697469616c697a6564000000000000000000000000000000000000602082015250565b6000611980602e83611913565b915061198b82611924565b604082019050919050565b600060208201905081810360008301526119af81611973565b9050919050565b6000819050919050565b600060ff82169050919050565b6000819050919050565b60006119f26119ed6119e8846119b6565b6119cd565b6119c0565b9050919050565b611a02816119d7565b82525050565b6000602082019050611a1d60008301846119f9565b92915050565b7f55736572206d7573742065786973740000000000000000000000000000000000600082015250565b6000611a59600f83611913565b9150611a6482611a23565b602082019050919050565b60006020820190508181036000830152611a8881611a4c565b9050919050565b7f55736572206973206e6f742070617274206f662074686174206c697374000000600082015250565b6000611ac5601d83611913565b9150611ad082611a8f565b602082019050919050565b60006020820190508181036000830152611af481611ab8565b9050919050565b6000819050919050565b7f4e487b7100000000000000000000000000000000000000000000000000000000600052601160045260246000fd5b6000611b3f82611afb565b9150611b4a83611afb565b9250828203905081811115611b6257611b61611b05565b5b92915050565b6000611b7382611afb565b9150611b7e83611afb565b9250828201905080821115611b9657611b95611b05565b5b92915050565b7f4e487b7100000000000000000000000000000000000000000000000000000000600052603260045260246000fd5b6000611bd682611afb565b91507fffffffffffffffffffffffffffffffffffffffffffffffffffffffffffffffff8203611c0857611c07611b05565b5b600182019050919050565b7f4e487b7100000000000000000000000000000000000000000000000000000000600052603160045260246000fd5b7f5573657220697320616c72656164792070617274206f662074686174206c697360008201527f7400000000000000000000000000000000000000000000000000000000000000602082015250565b6000611c9e602183611913565b9150611ca982611c42565b604082019050919050565b60006020820190508181036000830152611ccd81611c91565b9050919050565b7f55736572206d7573742068617665207468617420726f6c650000000000000000600082015250565b6000611d0a601883611913565b9150611d1582611cd4565b602082019050919050565b60006020820190508181036000830152611d3981611cfd565b9050919050565b60008190508160005260206000209050919050565b60006020601f8301049050919050565b600082821b905092915050565b600060088302611da27fffffffffffffffffffffffffffffffffffffffffffffffffffffffffffffffff82611d65565b611dac8683611d65565b95508019841693508086168417925050509392505050565b6000611ddf611dda611dd584611afb565b6119cd565b611afb565b9050919050565b6000819050919050565b611df983611dc4565b611e0d611e0582611de6565b848454611d72565b825550505050565b600090565b611e22611e15565b611e2d818484611df0565b505050565b5b81811015611e5157611e46600082611e1a565b600181019050611e33565b5050565b601f821115611e9657611e6781611d40565b611e7084611d55565b81016020851015611e7f578190505b611e93611e8b85611d55565b830182611e32565b50505b505050565b600082821c905092915050565b6000611eb960001984600802611e9b565b1980831691505092915050565b6000611ed28383611ea8565b9150826002028217905092915050565b611eeb82611279565b67ffffffffffffffff811115611f0457611f03611619565b5b611f0e82546118e2565b611f19828285611e55565b600060209050601f831160018114611f4c5760008415611f3a578287015190505b611f448582611ec6565b865550611fac565b601f198416611f5a86611d40565b60005b82811015611f8257848901518255600182019150602085019450602081019050611f5d565b86831015611f9f5784890151611f9b601f891682611ea8565b8355505b6001600288020188555050505b505050505050565b7f4f776e61626c653a206e6577206f776e657220697320746865207a65726f206160008201527f6464726573730000000000000000000000000000000000000000000000000000602082015250565b6000612010602683611913565b915061201b82611fb4565b604082019050919050565b6000602082019050818103600083015261203f81612003565b9050919050565b7f4f776e61626c653a2063616c6c6572206973206e6f7420746865206f776e6572600082015250565b600061207c602083611913565b915061208782612046565b602082019050919050565b600060208201905081810360008301526120ab8161206f565b905091905056fea2646970667358221220cde08d037ae918dc1d58e2084e360b867ddc774105f03764102df586bc7bbcfb64736f6c63430008150033",
  "devdoc": {
    "events": {
      "Initialized(uint8)": {
        "details": "Triggered when the contract has been initialized or reinitialized."
      }
    },
    "kind": "dev",
    "methods": {
      "owner()": {
        "details": "Returns the address of the current owner."
      },
      "renounceOwnership()": {
        "details": "Leaves the contract without owner. It will not be possible to call `onlyOwner` functions. Can only be called by the current owner. NOTE: Renouncing ownership will leave the contract without an owner, thereby disabling any functionality that is only available to the owner."
      },
      "transferOwnership(address)": {
        "details": "Transfers ownership of the contract to a new account (`newOwner`). Can only be called by the current owner."
      }
    },
    "version": 1
  },
  "userdoc": {
    "kind": "user",
    "methods": {
      "getUser(address)": {
        "notice": "Users"
      },
      "initialize()": {
        "notice": "Init"
      }
    },
    "version": 1
  },
  "storageLayout": {
    "storage": [
      {
        "astId": 506,
        "contract": "contracts/CoopHiveUsers.sol:CoopHiveUsers",
        "label": "_owner",
        "offset": 0,
        "slot": "0",
        "type": "t_address"
      },
      {
        "astId": 6,
        "contract": "contracts/CoopHiveUsers.sol:CoopHiveUsers",
        "label": "_initialized",
        "offset": 20,
        "slot": "0",
        "type": "t_uint8"
      },
      {
        "astId": 9,
        "contract": "contracts/CoopHiveUsers.sol:CoopHiveUsers",
        "label": "_initializing",
        "offset": 21,
        "slot": "0",
        "type": "t_bool"
      },
      {
        "astId": 5290,
        "contract": "contracts/CoopHiveUsers.sol:CoopHiveUsers",
        "label": "users",
        "offset": 0,
        "slot": "1",
        "type": "t_mapping(t_address,t_struct(User)6345_storage)"
      },
      {
        "astId": 5296,
        "contract": "contracts/CoopHiveUsers.sol:CoopHiveUsers",
        "label": "usersByType",
        "offset": 0,
        "slot": "2",
        "type": "t_mapping(t_enum(ServiceType)6322,t_array(t_address)dyn_storage)"
      }
    ],
    "types": {
      "t_address": {
        "encoding": "inplace",
        "label": "address",
        "numberOfBytes": "20"
      },
      "t_array(t_address)dyn_storage": {
        "base": "t_address",
        "encoding": "dynamic_array",
        "label": "address[]",
        "numberOfBytes": "32"
      },
      "t_array(t_enum(ServiceType)6322)dyn_storage": {
        "base": "t_enum(ServiceType)6322",
        "encoding": "dynamic_array",
        "label": "enum SharedStructs.ServiceType[]",
        "numberOfBytes": "32"
      },
      "t_bool": {
        "encoding": "inplace",
        "label": "bool",
        "numberOfBytes": "1"
      },
      "t_enum(ServiceType)6322": {
        "encoding": "inplace",
        "label": "enum SharedStructs.ServiceType",
        "numberOfBytes": "1"
      },
      "t_mapping(t_address,t_struct(User)6345_storage)": {
        "encoding": "mapping",
        "key": "t_address",
        "label": "mapping(address => struct SharedStructs.User)",
        "numberOfBytes": "32",
        "value": "t_struct(User)6345_storage"
      },
      "t_mapping(t_enum(ServiceType)6322,t_array(t_address)dyn_storage)": {
        "encoding": "mapping",
        "key": "t_enum(ServiceType)6322",
        "label": "mapping(enum SharedStructs.ServiceType => address[])",
        "numberOfBytes": "32",
        "value": "t_array(t_address)dyn_storage"
      },
      "t_string_storage": {
        "encoding": "bytes",
        "label": "string",
        "numberOfBytes": "32"
      },
      "t_struct(User)6345_storage": {
        "encoding": "inplace",
        "label": "struct SharedStructs.User",
        "members": [
          {
            "astId": 6336,
            "contract": "contracts/CoopHiveUsers.sol:CoopHiveUsers",
            "label": "userAddress",
            "offset": 0,
            "slot": "0",
            "type": "t_address"
          },
          {
            "astId": 6338,
            "contract": "contracts/CoopHiveUsers.sol:CoopHiveUsers",
            "label": "metadataCID",
            "offset": 0,
            "slot": "1",
            "type": "t_string_storage"
          },
          {
            "astId": 6340,
            "contract": "contracts/CoopHiveUsers.sol:CoopHiveUsers",
            "label": "url",
            "offset": 0,
            "slot": "2",
            "type": "t_string_storage"
          },
          {
            "astId": 6344,
            "contract": "contracts/CoopHiveUsers.sol:CoopHiveUsers",
            "label": "roles",
            "offset": 0,
            "slot": "3",
            "type": "t_array(t_enum(ServiceType)6322)dyn_storage"
          }
        ],
        "numberOfBytes": "128"
      },
      "t_uint8": {
        "encoding": "inplace",
        "label": "uint8",
        "numberOfBytes": "1"
      }
    }
  }
}