{
  "address": "0x068aA4bb90c613D70C7959E27a3e1143572ddaF2",
  "abi": [
    {
      "anonymous": false,
      "inputs": [
        {
          "indexed": false,
          "internalType": "uint8",
          "name": "version",
          "type": "uint8"
        }
      ],
      "name": "Initialized",
      "type": "event"
    },
    {
      "anonymous": false,
      "inputs": [
        {
          "indexed": false,
          "internalType": "uint256",
          "name": "id",
          "type": "uint256"
        },
        {
          "indexed": false,
          "internalType": "address",
          "name": "calling_contract",
          "type": "address"
        },
        {
          "indexed": false,
          "internalType": "address",
          "name": "payee",
          "type": "address"
        },
        {
          "indexed": false,
          "internalType": "string",
          "name": "module",
          "type": "string"
        },
        {
          "indexed": false,
          "internalType": "string[]",
          "name": "inputs",
          "type": "string[]"
        }
      ],
      "name": "JobAdded",
      "type": "event"
    },
    {
      "anonymous": false,
      "inputs": [
        {
          "indexed": true,
          "internalType": "address",
          "name": "previousOwner",
          "type": "address"
        },
        {
          "indexed": true,
          "internalType": "address",
          "name": "newOwner",
          "type": "address"
        }
      ],
      "name": "OwnershipTransferred",
      "type": "event"
    },
    {
      "inputs": [],
      "name": "disableChangeControllerAddress",
      "outputs": [],
      "stateMutability": "nonpayable",
      "type": "function"
    },
    {
      "inputs": [],
      "name": "getControllerAddress",
      "outputs": [
        {
          "internalType": "address",
          "name": "",
          "type": "address"
        }
      ],
      "stateMutability": "view",
      "type": "function"
    },
    {
      "inputs": [],
      "name": "getRequiredDeposit",
      "outputs": [
        {
          "internalType": "uint256",
          "name": "",
          "type": "uint256"
        }
      ],
      "stateMutability": "view",
      "type": "function"
    },
    {
      "inputs": [],
      "name": "getTokenAddress",
      "outputs": [
        {
          "internalType": "address",
          "name": "",
          "type": "address"
        }
      ],
      "stateMutability": "view",
      "type": "function"
    },
    {
      "inputs": [
        {
          "internalType": "address",
          "name": "_tokenAddress",
          "type": "address"
        }
      ],
      "name": "initialize",
      "outputs": [],
      "stateMutability": "nonpayable",
      "type": "function"
    },
    {
      "inputs": [],
      "name": "nextJobID",
      "outputs": [
        {
          "internalType": "uint256",
          "name": "",
          "type": "uint256"
        }
      ],
      "stateMutability": "view",
      "type": "function"
    },
    {
      "inputs": [],
      "name": "owner",
      "outputs": [
        {
          "internalType": "address",
          "name": "",
          "type": "address"
        }
      ],
      "stateMutability": "view",
      "type": "function"
    },
    {
      "inputs": [],
      "name": "renounceOwnership",
      "outputs": [],
      "stateMutability": "nonpayable",
      "type": "function"
    },
    {
      "inputs": [],
      "name": "requiredDeposit",
      "outputs": [
        {
          "internalType": "uint256",
          "name": "",
          "type": "uint256"
        }
      ],
      "stateMutability": "view",
      "type": "function"
    },
    {
      "inputs": [
        {
          "internalType": "string",
          "name": "module",
          "type": "string"
        },
        {
          "internalType": "string[]",
          "name": "inputs",
          "type": "string[]"
        },
        {
          "internalType": "address",
          "name": "payee",
          "type": "address"
        }
      ],
      "name": "runJob",
      "outputs": [
        {
          "internalType": "uint256",
          "name": "",
          "type": "uint256"
        }
      ],
      "stateMutability": "nonpayable",
      "type": "function"
    },
    {
      "inputs": [
        {
          "internalType": "address",
          "name": "_controllerAddress",
          "type": "address"
        }
      ],
      "name": "setControllerAddress",
      "outputs": [],
      "stateMutability": "nonpayable",
      "type": "function"
    },
    {
      "inputs": [
        {
          "internalType": "uint256",
          "name": "cost",
          "type": "uint256"
        }
      ],
      "name": "setRequiredDeposit",
      "outputs": [],
      "stateMutability": "nonpayable",
      "type": "function"
    },
    {
      "inputs": [
        {
          "internalType": "address",
          "name": "_tokenAddress",
          "type": "address"
        }
      ],
      "name": "setTokenAddress",
      "outputs": [],
      "stateMutability": "nonpayable",
      "type": "function"
    },
    {
      "inputs": [
        {
          "internalType": "uint256",
          "name": "id",
          "type": "uint256"
        },
        {
          "internalType": "string",
          "name": "dealId",
          "type": "string"
        },
        {
          "internalType": "string",
          "name": "dataId",
          "type": "string"
        }
      ],
      "name": "submitResults",
      "outputs": [],
      "stateMutability": "nonpayable",
      "type": "function"
    },
    {
      "inputs": [
        {
          "internalType": "address",
          "name": "newOwner",
          "type": "address"
        }
      ],
      "name": "transferOwnership",
      "outputs": [],
      "stateMutability": "nonpayable",
      "type": "function"
    }
  ],
  "transactionHash": "0xd0ccd48de3166d28dcbe6b58c2d2e4b9a17bd3dc79ef46fd594cbed8573c9ff2",
  "args": [],
  "numDeployments": 1,
  "solcInputHash": "4286bdc1be3c06de3f23b5ebaf2251b6",
  "bytecode": "0x608060405260018060146101000a81548160ff02191690831515021790555034801561002a57600080fd5b5061004761003c61004c60201b60201c565b61005460201b60201c565b610118565b600033905090565b60008060009054906101000a900473ffffffffffffffffffffffffffffffffffffffff169050816000806101000a81548173ffffffffffffffffffffffffffffffffffffffff021916908373ffffffffffffffffffffffffffffffffffffffff1602179055508173ffffffffffffffffffffffffffffffffffffffff168173ffffffffffffffffffffffffffffffffffffffff167f8be0079c531659141344cd1fd0a4f28419497f9722a3daafe3b4186f6b6457e060405160405180910390a35050565b611eb2806101276000396000f3fe608060405234801561001057600080fd5b50600436106100f55760003560e01c8063a470295811610097578063d2a715c011610066578063d2a715c014610226578063f2fde38b14610244578063f3d3d44814610260578063fb7cfdd71461027c576100f5565b8063a4702958146101b2578063c4d66de8146101bc578063c57380a2146101d8578063c75555fa146101f6576100f5565b806358e56db4116100d357806358e56db4146101505780636c0f1f581461016e578063715018a61461018a5780638da5cb5b14610194576100f5565b806310fe9ae8146100fa57806326a4e8d2146101185780634c526c7614610134575b600080fd5b61010261029a565b60405161010f9190610eef565b60405180910390f35b610132600480360381019061012d9190610f4a565b6102c4565b005b61014e60048036038101906101499190610fad565b6103e2565b005b610158610438565b6040516101659190610fe9565b60405180910390f35b6101886004803603810190610183919061114a565b610442565b005b610192610542565b005b61019c610556565b6040516101a99190610eef565b60405180910390f35b6101ba61057f565b005b6101d660048036038101906101d19190610f4a565b6105a4565b005b6101e06106ef565b6040516101ed9190610eef565b60405180910390f35b610210600480360381019061020b91906112bb565b610719565b60405161021d9190610fe9565b60405180910390f35b61022e61099e565b60405161023b9190610fe9565b60405180910390f35b61025e60048036038101906102599190610f4a565b6109a4565b005b61027a60048036038101906102759190610f4a565b610a27565b005b610284610b31565b6040516102919190610fe9565b60405180910390f35b6000600260009054906101000a900473ffffffffffffffffffffffffffffffffffffffff16905090565b6102cc610b37565b600073ffffffffffffffffffffffffffffffffffffffff168173ffffffffffffffffffffffffffffffffffffffff160361033b576040517f08c379a0000000000000000000000000000000000000000000000000000000008152600401610332906113a3565b60405180910390fd5b80600260006101000a81548173ffffffffffffffffffffffffffffffffffffffff021916908373ffffffffffffffffffffffffffffffffffffffff160217905550600260009054906101000a900473ffffffffffffffffffffffffffffffffffffffff16600360006101000a81548173ffffffffffffffffffffffffffffffffffffffff021916908373ffffffffffffffffffffffffffffffffffffffff16021790555050565b6103ea610bb5565b506000811161042e576040517f08c379a00000000000000000000000000000000000000000000000000000000081526004016104259061140f565b60405180910390fd5b8060048190555050565b6000600454905090565b61044a610bb5565b50600060066000858152602001908152602001600020905060008160000154036104a9576040517f08c379a00000000000000000000000000000000000000000000000000000000081526004016104a09061147b565b60405180910390fd5b8060010160009054906101000a900473ffffffffffffffffffffffffffffffffffffffff1673ffffffffffffffffffffffffffffffffffffffff16636c0f1f588585856040518463ffffffff1660e01b815260040161050a93929190611509565b600060405180830381600087803b15801561052457600080fd5b505af1158015610538573d6000803e3d6000fd5b5050505050505050565b61054a610b37565b6105546000610ce5565b565b60008060009054906101000a900473ffffffffffffffffffffffffffffffffffffffff16905090565b610587610b37565b6000600160146101000a81548160ff021916908315150217905550565b6000600160169054906101000a900460ff161590508080156105d7575060018060159054906101000a900460ff1660ff16105b8061060557506105e630610da9565b158015610604575060018060159054906101000a900460ff1660ff16145b5b610644576040517f08c379a000000000000000000000000000000000000000000000000000000000815260040161063b906115c0565b60405180910390fd5b60018060156101000a81548160ff021916908360ff16021790555080156106805760018060166101000a81548160ff0219169083151502179055505b610689826102c4565b600060058190555080156106eb576000600160166101000a81548160ff0219169083151502179055507f7f26b83ff96e1f2b6a682f133852f6798a09c465da95921460cefb384740249860016040516106e29190611632565b60405180910390a15b5050565b6000600160009054906101000a900473ffffffffffffffffffffffffffffffffffffffff16905090565b6000600454600360009054906101000a900473ffffffffffffffffffffffffffffffffffffffff1673ffffffffffffffffffffffffffffffffffffffff1663dd62ed3e846107656106ef565b6040518363ffffffff1660e01b815260040161078292919061164d565b602060405180830381865afa15801561079f573d6000803e3d6000fd5b505050506040513d601f19601f820116820180604052508101906107c3919061168b565b1015610804576040517f08c379a00000000000000000000000000000000000000000000000000000000081526004016107fb90611704565b60405180910390fd5b60016005546108139190611753565b6005819055506040518060a0016040528060055481526020013373ffffffffffffffffffffffffffffffffffffffff1681526020018373ffffffffffffffffffffffffffffffffffffffff168152602001858152602001848152506006600060055481526020019081526020016000206000820151816000015560208201518160010160006101000a81548173ffffffffffffffffffffffffffffffffffffffff021916908373ffffffffffffffffffffffffffffffffffffffff16021790555060408201518160020160006101000a81548173ffffffffffffffffffffffffffffffffffffffff021916908373ffffffffffffffffffffffffffffffffffffffff16021790555060608201518160030190816109309190611989565b50608082015181600401908051906020019061094d929190610dd4565b509050507faa171d38d08c39622dbd189ddd0a5c0cf3ea10eeda0c7d4c2c75d13fcc4fe14a6005543384878760405161098a959493929190611b67565b60405180910390a160055490509392505050565b60055481565b6109ac610b37565b600073ffffffffffffffffffffffffffffffffffffffff168173ffffffffffffffffffffffffffffffffffffffff1603610a1b576040517f08c379a0000000000000000000000000000000000000000000000000000000008152600401610a1290611c3a565b60405180910390fd5b610a2481610ce5565b50565b610a2f610b37565b600073ffffffffffffffffffffffffffffffffffffffff168173ffffffffffffffffffffffffffffffffffffffff1603610a9e576040517f08c379a0000000000000000000000000000000000000000000000000000000008152600401610a9590611ccc565b60405180910390fd5b600160149054906101000a900460ff16610aed576040517f08c379a0000000000000000000000000000000000000000000000000000000008152600401610ae490611d5e565b60405180910390fd5b80600160006101000a81548173ffffffffffffffffffffffffffffffffffffffff021916908373ffffffffffffffffffffffffffffffffffffffff16021790555050565b60045481565b610b3f610dcc565b73ffffffffffffffffffffffffffffffffffffffff16610b5d610556565b73ffffffffffffffffffffffffffffffffffffffff1614610bb3576040517f08c379a0000000000000000000000000000000000000000000000000000000008152600401610baa90611dca565b60405180910390fd5b565b60008073ffffffffffffffffffffffffffffffffffffffff16600160009054906101000a900473ffffffffffffffffffffffffffffffffffffffff1673ffffffffffffffffffffffffffffffffffffffff1603610c47576040517f08c379a0000000000000000000000000000000000000000000000000000000008152600401610c3e90611ccc565b60405180910390fd5b600160009054906101000a900473ffffffffffffffffffffffffffffffffffffffff1673ffffffffffffffffffffffffffffffffffffffff16610c88610dcc565b73ffffffffffffffffffffffffffffffffffffffff1614610cde576040517f08c379a0000000000000000000000000000000000000000000000000000000008152600401610cd590611e5c565b60405180910390fd5b6001905090565b60008060009054906101000a900473ffffffffffffffffffffffffffffffffffffffff169050816000806101000a81548173ffffffffffffffffffffffffffffffffffffffff021916908373ffffffffffffffffffffffffffffffffffffffff1602179055508173ffffffffffffffffffffffffffffffffffffffff168173ffffffffffffffffffffffffffffffffffffffff167f8be0079c531659141344cd1fd0a4f28419497f9722a3daafe3b4186f6b6457e060405160405180910390a35050565b6000808273ffffffffffffffffffffffffffffffffffffffff163b119050919050565b600033905090565b828054828255906000526020600020908101928215610e1c579160200282015b82811115610e1b578251829081610e0b9190611989565b5091602001919060010190610df4565b5b509050610e299190610e2d565b5090565b5b80821115610e4d5760008181610e449190610e51565b50600101610e2e565b5090565b508054610e5d906117b6565b6000825580601f10610e6f5750610e8e565b601f016020900490600052602060002090810190610e8d9190610e91565b5b50565b5b80821115610eaa576000816000905550600101610e92565b5090565b600073ffffffffffffffffffffffffffffffffffffffff82169050919050565b6000610ed982610eae565b9050919050565b610ee981610ece565b82525050565b6000602082019050610f046000830184610ee0565b92915050565b6000604051905090565b600080fd5b600080fd5b610f2781610ece565b8114610f3257600080fd5b50565b600081359050610f4481610f1e565b92915050565b600060208284031215610f6057610f5f610f14565b5b6000610f6e84828501610f35565b91505092915050565b6000819050919050565b610f8a81610f77565b8114610f9557600080fd5b50565b600081359050610fa781610f81565b92915050565b600060208284031215610fc357610fc2610f14565b5b6000610fd184828501610f98565b91505092915050565b610fe381610f77565b82525050565b6000602082019050610ffe6000830184610fda565b92915050565b600080fd5b600080fd5b6000601f19601f8301169050919050565b7f4e487b7100000000000000000000000000000000000000000000000000000000600052604160045260246000fd5b6110578261100e565b810181811067ffffffffffffffff821117156110765761107561101f565b5b80604052505050565b6000611089610f0a565b9050611095828261104e565b919050565b600067ffffffffffffffff8211156110b5576110b461101f565b5b6110be8261100e565b9050602081019050919050565b82818337600083830152505050565b60006110ed6110e88461109a565b61107f565b90508281526020810184848401111561110957611108611009565b5b6111148482856110cb565b509392505050565b600082601f83011261113157611130611004565b5b81356111418482602086016110da565b91505092915050565b60008060006060848603121561116357611162610f14565b5b600061117186828701610f98565b935050602084013567ffffffffffffffff81111561119257611191610f19565b5b61119e8682870161111c565b925050604084013567ffffffffffffffff8111156111bf576111be610f19565b5b6111cb8682870161111c565b9150509250925092565b600067ffffffffffffffff8211156111f0576111ef61101f565b5b602082029050602081019050919050565b600080fd5b6000611219611214846111d5565b61107f565b9050808382526020820190506020840283018581111561123c5761123b611201565b5b835b8181101561128357803567ffffffffffffffff81111561126157611260611004565b5b80860161126e898261111c565b8552602085019450505060208101905061123e565b5050509392505050565b600082601f8301126112a2576112a1611004565b5b81356112b2848260208601611206565b91505092915050565b6000806000606084860312156112d4576112d3610f14565b5b600084013567ffffffffffffffff8111156112f2576112f1610f19565b5b6112fe8682870161111c565b935050602084013567ffffffffffffffff81111561131f5761131e610f19565b5b61132b8682870161128d565b925050604061133c86828701610f35565b9150509250925092565b600082825260208201905092915050565b7f546f6b656e206164647265737300000000000000000000000000000000000000600082015250565b600061138d600d83611346565b915061139882611357565b602082019050919050565b600060208201905081810360008301526113bc81611380565b9050919050565b7f4d696e206465706f736974000000000000000000000000000000000000000000600082015250565b60006113f9600b83611346565b9150611404826113c3565b602082019050919050565b60006020820190508181036000830152611428816113ec565b9050919050565b7f4a6f62206e6f7420666f756e6400000000000000000000000000000000000000600082015250565b6000611465600d83611346565b91506114708261142f565b602082019050919050565b6000602082019050818103600083015261149481611458565b9050919050565b600081519050919050565b60005b838110156114c45780820151818401526020810190506114a9565b60008484015250505050565b60006114db8261149b565b6114e58185611346565b93506114f58185602086016114a6565b6114fe8161100e565b840191505092915050565b600060608201905061151e6000830186610fda565b818103602083015261153081856114d0565b9050818103604083015261154481846114d0565b9050949350505050565b7f496e697469616c697a61626c653a20636f6e747261637420697320616c72656160008201527f647920696e697469616c697a6564000000000000000000000000000000000000602082015250565b60006115aa602e83611346565b91506115b58261154e565b604082019050919050565b600060208201905081810360008301526115d98161159d565b9050919050565b6000819050919050565b600060ff82169050919050565b6000819050919050565b600061161c611617611612846115e0565b6115f7565b6115ea565b9050919050565b61162c81611601565b82525050565b60006020820190506116476000830184611623565b92915050565b60006040820190506116626000830185610ee0565b61166f6020830184610ee0565b9392505050565b60008151905061168581610f81565b92915050565b6000602082840312156116a1576116a0610f14565b5b60006116af84828501611676565b91505092915050565b7f546f6b656e20616c6c6f77616e6365206e6f7420656e6f756768000000000000600082015250565b60006116ee601a83611346565b91506116f9826116b8565b602082019050919050565b6000602082019050818103600083015261171d816116e1565b9050919050565b7f4e487b7100000000000000000000000000000000000000000000000000000000600052601160045260246000fd5b600061175e82610f77565b915061176983610f77565b925082820190508082111561178157611780611724565b5b92915050565b7f4e487b7100000000000000000000000000000000000000000000000000000000600052602260045260246000fd5b600060028204905060018216806117ce57607f821691505b6020821081036117e1576117e0611787565b5b50919050565b60008190508160005260206000209050919050565b60006020601f8301049050919050565b600082821b905092915050565b6000600883026118497fffffffffffffffffffffffffffffffffffffffffffffffffffffffffffffffff8261180c565b611853868361180c565b95508019841693508086168417925050509392505050565b600061188661188161187c84610f77565b6115f7565b610f77565b9050919050565b6000819050919050565b6118a08361186b565b6118b46118ac8261188d565b848454611819565b825550505050565b600090565b6118c96118bc565b6118d4818484611897565b505050565b5b818110156118f8576118ed6000826118c1565b6001810190506118da565b5050565b601f82111561193d5761190e816117e7565b611917846117fc565b81016020851015611926578190505b61193a611932856117fc565b8301826118d9565b50505b505050565b600082821c905092915050565b600061196060001984600802611942565b1980831691505092915050565b6000611979838361194f565b9150826002028217905092915050565b6119928261149b565b67ffffffffffffffff8111156119ab576119aa61101f565b5b6119b582546117b6565b6119c08282856118fc565b600060209050601f8311600181146119f357600084156119e1578287015190505b6119eb858261196d565b865550611a53565b601f198416611a01866117e7565b60005b82811015611a2957848901518255600182019150602085019450602081019050611a04565b86831015611a465784890151611a42601f89168261194f565b8355505b6001600288020188555050505b505050505050565b600081519050919050565b600082825260208201905092915050565b6000819050602082019050919050565b600082825260208201905092915050565b6000611aa38261149b565b611aad8185611a87565b9350611abd8185602086016114a6565b611ac68161100e565b840191505092915050565b6000611add8383611a98565b905092915050565b6000602082019050919050565b6000611afd82611a5b565b611b078185611a66565b935083602082028501611b1985611a77565b8060005b85811015611b555784840389528151611b368582611ad1565b9450611b4183611ae5565b925060208a01995050600181019050611b1d565b50829750879550505050505092915050565b600060a082019050611b7c6000830188610fda565b611b896020830187610ee0565b611b966040830186610ee0565b8181036060830152611ba881856114d0565b90508181036080830152611bbc8184611af2565b90509695505050505050565b7f4f776e61626c653a206e6577206f776e657220697320746865207a65726f206160008201527f6464726573730000000000000000000000000000000000000000000000000000602082015250565b6000611c24602683611346565b9150611c2f82611bc8565b604082019050919050565b60006020820190508181036000830152611c5381611c17565b9050919050565b7f436f6e74726f6c6c65724f776e61626c653a20436f6e74726f6c6c657220616460008201527f6472657373206d75737420626520646566696e65640000000000000000000000602082015250565b6000611cb6603583611346565b9150611cc182611c5a565b604082019050919050565b60006020820190508181036000830152611ce581611ca9565b9050919050565b7f436f6e74726f6c6c65724f776e61626c653a2063616e4368616e6765436f6e7460008201527f726f6c6c6572416464726573732069732064697361626c656400000000000000602082015250565b6000611d48603983611346565b9150611d5382611cec565b604082019050919050565b60006020820190508181036000830152611d7781611d3b565b9050919050565b7f4f776e61626c653a2063616c6c6572206973206e6f7420746865206f776e6572600082015250565b6000611db4602083611346565b9150611dbf82611d7e565b602082019050919050565b60006020820190508181036000830152611de381611da7565b9050919050565b7f436f6e74726f6c6c65724f776e61626c653a204f6e6c792074686520636f6e7460008201527f726f6c6c65722063616e2063616c6c2074686973206d6574686f640000000000602082015250565b6000611e46603b83611346565b9150611e5182611dea565b604082019050919050565b60006020820190508181036000830152611e7581611e39565b905091905056fea264697066735822122018495f9e1e018ba4765431fe3e76e1a15f7effd9d43093165cc49cc5449fd12964736f6c63430008150033",
  "devdoc": {
    "events": {
      "Initialized(uint8)": {
        "details": "Triggered when the contract has been initialized or reinitialized."
      }
    },
    "kind": "dev",
    "methods": {
      "owner()": {
        "details": "Returns the address of the current owner."
      },
      "renounceOwnership()": {
        "details": "Leaves the contract without owner. It will not be possible to call `onlyOwner` functions. Can only be called by the current owner. NOTE: Renouncing ownership will leave the contract without an owner, thereby disabling any functionality that is only available to the owner."
      },
      "transferOwnership(address)": {
        "details": "Transfers ownership of the contract to a new account (`newOwner`). Can only be called by the current owner."
      }
    },
    "version": 1
  },
  "userdoc": {
    "kind": "user",
    "methods": {
      "initialize(address)": {
        "notice": "Init"
      }
    },
    "version": 1
  },
  "storageLayout": {
    "storage": [
      {
        "astId": 506,
        "contract": "contracts/CoopHiveOnChainJobCreator.sol:CoopHiveOnChainJobCreator",
        "label": "_owner",
        "offset": 0,
        "slot": "0",
        "type": "t_address"
      },
      {
        "astId": 1475,
        "contract": "contracts/CoopHiveOnChainJobCreator.sol:CoopHiveOnChainJobCreator",
        "label": "controllerAddress",
        "offset": 0,
        "slot": "1",
        "type": "t_address"
      },
      {
        "astId": 1478,
        "contract": "contracts/CoopHiveOnChainJobCreator.sol:CoopHiveOnChainJobCreator",
        "label": "canChangeControllerAddress",
        "offset": 20,
        "slot": "1",
        "type": "t_bool"
      },
      {
        "astId": 6,
        "contract": "contracts/CoopHiveOnChainJobCreator.sol:CoopHiveOnChainJobCreator",
        "label": "_initialized",
        "offset": 21,
        "slot": "1",
        "type": "t_uint8"
      },
      {
        "astId": 9,
        "contract": "contracts/CoopHiveOnChainJobCreator.sol:CoopHiveOnChainJobCreator",
        "label": "_initializing",
        "offset": 22,
        "slot": "1",
        "type": "t_bool"
      },
      {
        "astId": 2868,
        "contract": "contracts/CoopHiveOnChainJobCreator.sol:CoopHiveOnChainJobCreator",
        "label": "tokenAddress",
        "offset": 0,
        "slot": "2",
        "type": "t_address"
      },
      {
        "astId": 2871,
        "contract": "contracts/CoopHiveOnChainJobCreator.sol:CoopHiveOnChainJobCreator",
        "label": "tokenContract",
        "offset": 0,
        "slot": "3",
        "type": "t_contract(ICoopHiveToken)6267"
      },
      {
        "astId": 2873,
        "contract": "contracts/CoopHiveOnChainJobCreator.sol:CoopHiveOnChainJobCreator",
        "label": "requiredDeposit",
        "offset": 0,
        "slot": "4",
        "type": "t_uint256"
      },
      {
        "astId": 2875,
        "contract": "contracts/CoopHiveOnChainJobCreator.sol:CoopHiveOnChainJobCreator",
        "label": "nextJobID",
        "offset": 0,
        "slot": "5",
        "type": "t_uint256"
      },
      {
        "astId": 2880,
        "contract": "contracts/CoopHiveOnChainJobCreator.sol:CoopHiveOnChainJobCreator",
        "label": "jobOffers",
        "offset": 0,
        "slot": "6",
        "type": "t_mapping(t_uint256,t_struct(JobOffer)6445_storage)"
      }
    ],
    "types": {
      "t_address": {
        "encoding": "inplace",
        "label": "address",
        "numberOfBytes": "20"
      },
      "t_array(t_string_storage)dyn_storage": {
        "base": "t_string_storage",
        "encoding": "dynamic_array",
        "label": "string[]",
        "numberOfBytes": "32"
      },
      "t_bool": {
        "encoding": "inplace",
        "label": "bool",
        "numberOfBytes": "1"
      },
      "t_contract(ICoopHiveToken)6267": {
        "encoding": "inplace",
        "label": "contract ICoopHiveToken",
        "numberOfBytes": "20"
      },
      "t_mapping(t_uint256,t_struct(JobOffer)6445_storage)": {
        "encoding": "mapping",
        "key": "t_uint256",
        "label": "mapping(uint256 => struct SharedStructs.JobOffer)",
        "numberOfBytes": "32",
        "value": "t_struct(JobOffer)6445_storage"
      },
      "t_string_storage": {
        "encoding": "bytes",
        "label": "string",
        "numberOfBytes": "32"
      },
      "t_struct(JobOffer)6445_storage": {
        "encoding": "inplace",
        "label": "struct SharedStructs.JobOffer",
        "members": [
          {
            "astId": 6435,
            "contract": "contracts/CoopHiveOnChainJobCreator.sol:CoopHiveOnChainJobCreator",
            "label": "id",
            "offset": 0,
            "slot": "0",
            "type": "t_uint256"
          },
          {
            "astId": 6437,
            "contract": "contracts/CoopHiveOnChainJobCreator.sol:CoopHiveOnChainJobCreator",
            "label": "calling_contract",
            "offset": 0,
            "slot": "1",
            "type": "t_address"
          },
          {
            "astId": 6439,
            "contract": "contracts/CoopHiveOnChainJobCreator.sol:CoopHiveOnChainJobCreator",
            "label": "payee",
            "offset": 0,
            "slot": "2",
            "type": "t_address"
          },
          {
            "astId": 6441,
            "contract": "contracts/CoopHiveOnChainJobCreator.sol:CoopHiveOnChainJobCreator",
            "label": "module",
            "offset": 0,
            "slot": "3",
            "type": "t_string_storage"
          },
          {
            "astId": 6444,
            "contract": "contracts/CoopHiveOnChainJobCreator.sol:CoopHiveOnChainJobCreator",
            "label": "inputs",
            "offset": 0,
            "slot": "4",
            "type": "t_array(t_string_storage)dyn_storage"
          }
        ],
        "numberOfBytes": "160"
      },
      "t_uint256": {
        "encoding": "inplace",
        "label": "uint256",
        "numberOfBytes": "32"
      },
      "t_uint8": {
        "encoding": "inplace",
        "label": "uint8",
        "numberOfBytes": "1"
      }
    }
  }
}