{
  "address": "0x38A581AD7B3A4Be91BcA119416FCf9cb41e22EB8",
  "abi": [
    {
      "anonymous": false,
      "inputs": [
        {
          "indexed": false,
          "internalType": "string",
          "name": "dealId",
          "type": "string"
        },
        {
          "indexed": false,
          "internalType": "enum SharedStructs.AgreementState",
          "name": "state",
          "type": "uint8"
        }
      ],
      "name": "DealStateChange",
      "type": "event"
    },
    {
      "anonymous": false,
      "inputs": [
        {
          "indexed": false,
          "internalType": "uint8",
          "name": "version",
          "type": "uint8"
        }
      ],
      "name": "Initialized",
      "type": "event"
    },
    {
      "anonymous": false,
      "inputs": [
        {
          "indexed": true,
          "internalType": "address",
          "name": "previousOwner",
          "type": "address"
        },
        {
          "indexed": true,
          "internalType": "address",
          "name": "newOwner",
          "type": "address"
        }
      ],
      "name": "OwnershipTransferred",
      "type": "event"
    },
    {
      "anonymous": false,
      "inputs": [
        {
          "indexed": false,
          "internalType": "string",
          "name": "dealId",
          "type": "string"
        },
        {
          "indexed": false,
          "internalType": "string",
          "name": "resultsId",
          "type": "string"
        },
        {
          "indexed": false,
          "internalType": "string",
          "name": "dataId",
          "type": "string"
        },
        {
          "indexed": false,
          "internalType": "uint256",
          "name": "instructionCount",
          "type": "uint256"
        }
      ],
      "name": "ResultAdded",
      "type": "event"
    },
    {
      "inputs": [
        {
          "internalType": "string",
          "name": "dealId",
          "type": "string"
        }
      ],
      "name": "acceptResult",
      "outputs": [],
      "stateMutability": "nonpayable",
      "type": "function"
    },
    {
      "inputs": [
        {
          "internalType": "string",
          "name": "dealId",
          "type": "string"
        },
        {
          "internalType": "string",
          "name": "resultsId",
          "type": "string"
        },
        {
          "internalType": "string",
          "name": "dataId",
          "type": "string"
        },
        {
          "internalType": "uint256",
          "name": "instructionCount",
          "type": "uint256"
        }
      ],
      "name": "addResult",
      "outputs": [
        {
          "components": [
            {
              "internalType": "string",
              "name": "dealId",
              "type": "string"
            },
            {
              "internalType": "string",
              "name": "resultsId",
              "type": "string"
            },
            {
              "internalType": "string",
              "name": "dataId",
              "type": "string"
            },
            {
              "internalType": "uint256",
              "name": "instructionCount",
              "type": "uint256"
            }
          ],
          "internalType": "struct SharedStructs.Result",
          "name": "",
          "type": "tuple"
        }
      ],
      "stateMutability": "nonpayable",
      "type": "function"
    },
    {
      "inputs": [
        {
          "internalType": "string",
          "name": "dealId",
          "type": "string"
        }
      ],
      "name": "agreeJobCreator",
      "outputs": [
        {
          "components": [
            {
              "internalType": "enum SharedStructs.AgreementState",
              "name": "state",
              "type": "uint8"
            },
            {
              "internalType": "uint256",
              "name": "resourceProviderAgreedAt",
              "type": "uint256"
            },
            {
              "internalType": "uint256",
              "name": "jobCreatorAgreedAt",
              "type": "uint256"
            },
            {
              "internalType": "uint256",
              "name": "dealCreatedAt",
              "type": "uint256"
            },
            {
              "internalType": "uint256",
              "name": "dealAgreedAt",
              "type": "uint256"
            },
            {
              "internalType": "uint256",
              "name": "resultsSubmittedAt",
              "type": "uint256"
            },
            {
              "internalType": "uint256",
              "name": "resultsAcceptedAt",
              "type": "uint256"
            },
            {
              "internalType": "uint256",
              "name": "resultsCheckedAt",
              "type": "uint256"
            },
            {
              "internalType": "uint256",
              "name": "mediationAcceptedAt",
              "type": "uint256"
            },
            {
              "internalType": "uint256",
              "name": "mediationRejectedAt",
              "type": "uint256"
            },
            {
              "internalType": "uint256",
              "name": "timeoutAgreeAt",
              "type": "uint256"
            },
            {
              "internalType": "uint256",
              "name": "timeoutSubmitResultsAt",
              "type": "uint256"
            },
            {
              "internalType": "uint256",
              "name": "timeoutJudgeResultsAt",
              "type": "uint256"
            },
            {
              "internalType": "uint256",
              "name": "timeoutMediateResultsAt",
              "type": "uint256"
            }
          ],
          "internalType": "struct SharedStructs.Agreement",
          "name": "",
          "type": "tuple"
        }
      ],
      "stateMutability": "nonpayable",
      "type": "function"
    },
    {
      "inputs": [
        {
          "internalType": "string",
          "name": "dealId",
          "type": "string"
        }
      ],
      "name": "agreeResourceProvider",
      "outputs": [
        {
          "components": [
            {
              "internalType": "enum SharedStructs.AgreementState",
              "name": "state",
              "type": "uint8"
            },
            {
              "internalType": "uint256",
              "name": "resourceProviderAgreedAt",
              "type": "uint256"
            },
            {
              "internalType": "uint256",
              "name": "jobCreatorAgreedAt",
              "type": "uint256"
            },
            {
              "internalType": "uint256",
              "name": "dealCreatedAt",
              "type": "uint256"
            },
            {
              "internalType": "uint256",
              "name": "dealAgreedAt",
              "type": "uint256"
            },
            {
              "internalType": "uint256",
              "name": "resultsSubmittedAt",
              "type": "uint256"
            },
            {
              "internalType": "uint256",
              "name": "resultsAcceptedAt",
              "type": "uint256"
            },
            {
              "internalType": "uint256",
              "name": "resultsCheckedAt",
              "type": "uint256"
            },
            {
              "internalType": "uint256",
              "name": "mediationAcceptedAt",
              "type": "uint256"
            },
            {
              "internalType": "uint256",
              "name": "mediationRejectedAt",
              "type": "uint256"
            },
            {
              "internalType": "uint256",
              "name": "timeoutAgreeAt",
              "type": "uint256"
            },
            {
              "internalType": "uint256",
              "name": "timeoutSubmitResultsAt",
              "type": "uint256"
            },
            {
              "internalType": "uint256",
              "name": "timeoutJudgeResultsAt",
              "type": "uint256"
            },
            {
              "internalType": "uint256",
              "name": "timeoutMediateResultsAt",
              "type": "uint256"
            }
          ],
          "internalType": "struct SharedStructs.Agreement",
          "name": "",
          "type": "tuple"
        }
      ],
      "stateMutability": "nonpayable",
      "type": "function"
    },
    {
      "inputs": [
        {
          "internalType": "string",
          "name": "dealId",
          "type": "string"
        }
      ],
      "name": "checkResult",
      "outputs": [],
      "stateMutability": "nonpayable",
      "type": "function"
    },
    {
      "inputs": [],
      "name": "disableChangeControllerAddress",
      "outputs": [],
      "stateMutability": "nonpayable",
      "type": "function"
    },
    {
      "inputs": [
        {
          "internalType": "string",
          "name": "dealId",
          "type": "string"
        },
        {
          "components": [
            {
              "internalType": "address",
              "name": "solver",
              "type": "address"
            },
            {
              "internalType": "address",
              "name": "jobCreator",
              "type": "address"
            },
            {
              "internalType": "address",
              "name": "resourceProvider",
              "type": "address"
            },
            {
              "internalType": "address[]",
              "name": "mediators",
              "type": "address[]"
            }
          ],
          "internalType": "struct SharedStructs.DealMembers",
          "name": "members",
          "type": "tuple"
        },
        {
          "components": [
            {
              "components": [
                {
                  "internalType": "uint256",
                  "name": "timeout",
                  "type": "uint256"
                },
                {
                  "internalType": "uint256",
                  "name": "collateral",
                  "type": "uint256"
                }
              ],
              "internalType": "struct SharedStructs.DealTimeout",
              "name": "agree",
              "type": "tuple"
            },
            {
              "components": [
                {
                  "internalType": "uint256",
                  "name": "timeout",
                  "type": "uint256"
                },
                {
                  "internalType": "uint256",
                  "name": "collateral",
                  "type": "uint256"
                }
              ],
              "internalType": "struct SharedStructs.DealTimeout",
              "name": "submitResults",
              "type": "tuple"
            },
            {
              "components": [
                {
                  "internalType": "uint256",
                  "name": "timeout",
                  "type": "uint256"
                },
                {
                  "internalType": "uint256",
                  "name": "collateral",
                  "type": "uint256"
                }
              ],
              "internalType": "struct SharedStructs.DealTimeout",
              "name": "judgeResults",
              "type": "tuple"
            },
            {
              "components": [
                {
                  "internalType": "uint256",
                  "name": "timeout",
                  "type": "uint256"
                },
                {
                  "internalType": "uint256",
                  "name": "collateral",
                  "type": "uint256"
                }
              ],
              "internalType": "struct SharedStructs.DealTimeout",
              "name": "mediateResults",
              "type": "tuple"
            }
          ],
          "internalType": "struct SharedStructs.DealTimeouts",
          "name": "timeouts",
          "type": "tuple"
        },
        {
          "components": [
            {
              "internalType": "uint256",
              "name": "instructionPrice",
              "type": "uint256"
            },
            {
              "internalType": "uint256",
              "name": "paymentCollateral",
              "type": "uint256"
            },
            {
              "internalType": "uint256",
              "name": "resultsCollateralMultiple",
              "type": "uint256"
            },
            {
              "internalType": "uint256",
              "name": "mediationFee",
              "type": "uint256"
            }
          ],
          "internalType": "struct SharedStructs.DealPricing",
          "name": "pricing",
          "type": "tuple"
        }
      ],
      "name": "ensureDeal",
      "outputs": [
        {
          "components": [
            {
              "internalType": "string",
              "name": "dealId",
              "type": "string"
            },
            {
              "components": [
                {
                  "internalType": "address",
                  "name": "solver",
                  "type": "address"
                },
                {
                  "internalType": "address",
                  "name": "jobCreator",
                  "type": "address"
                },
                {
                  "internalType": "address",
                  "name": "resourceProvider",
                  "type": "address"
                },
                {
                  "internalType": "address[]",
                  "name": "mediators",
                  "type": "address[]"
                }
              ],
              "internalType": "struct SharedStructs.DealMembers",
              "name": "members",
              "type": "tuple"
            },
            {
              "components": [
                {
                  "components": [
                    {
                      "internalType": "uint256",
                      "name": "timeout",
                      "type": "uint256"
                    },
                    {
                      "internalType": "uint256",
                      "name": "collateral",
                      "type": "uint256"
                    }
                  ],
                  "internalType": "struct SharedStructs.DealTimeout",
                  "name": "agree",
                  "type": "tuple"
                },
                {
                  "components": [
                    {
                      "internalType": "uint256",
                      "name": "timeout",
                      "type": "uint256"
                    },
                    {
                      "internalType": "uint256",
                      "name": "collateral",
                      "type": "uint256"
                    }
                  ],
                  "internalType": "struct SharedStructs.DealTimeout",
                  "name": "submitResults",
                  "type": "tuple"
                },
                {
                  "components": [
                    {
                      "internalType": "uint256",
                      "name": "timeout",
                      "type": "uint256"
                    },
                    {
                      "internalType": "uint256",
                      "name": "collateral",
                      "type": "uint256"
                    }
                  ],
                  "internalType": "struct SharedStructs.DealTimeout",
                  "name": "judgeResults",
                  "type": "tuple"
                },
                {
                  "components": [
                    {
                      "internalType": "uint256",
                      "name": "timeout",
                      "type": "uint256"
                    },
                    {
                      "internalType": "uint256",
                      "name": "collateral",
                      "type": "uint256"
                    }
                  ],
                  "internalType": "struct SharedStructs.DealTimeout",
                  "name": "mediateResults",
                  "type": "tuple"
                }
              ],
              "internalType": "struct SharedStructs.DealTimeouts",
              "name": "timeouts",
              "type": "tuple"
            },
            {
              "components": [
                {
                  "internalType": "uint256",
                  "name": "instructionPrice",
                  "type": "uint256"
                },
                {
                  "internalType": "uint256",
                  "name": "paymentCollateral",
                  "type": "uint256"
                },
                {
                  "internalType": "uint256",
                  "name": "resultsCollateralMultiple",
                  "type": "uint256"
                },
                {
                  "internalType": "uint256",
                  "name": "mediationFee",
                  "type": "uint256"
                }
              ],
              "internalType": "struct SharedStructs.DealPricing",
              "name": "pricing",
              "type": "tuple"
            }
          ],
          "internalType": "struct SharedStructs.Deal",
          "name": "",
          "type": "tuple"
        }
      ],
      "stateMutability": "nonpayable",
      "type": "function"
    },
    {
      "inputs": [
        {
          "internalType": "string",
          "name": "dealId",
          "type": "string"
        }
      ],
      "name": "getAgreement",
      "outputs": [
        {
          "components": [
            {
              "internalType": "enum SharedStructs.AgreementState",
              "name": "state",
              "type": "uint8"
            },
            {
              "internalType": "uint256",
              "name": "resourceProviderAgreedAt",
              "type": "uint256"
            },
            {
              "internalType": "uint256",
              "name": "jobCreatorAgreedAt",
              "type": "uint256"
            },
            {
              "internalType": "uint256",
              "name": "dealCreatedAt",
              "type": "uint256"
            },
            {
              "internalType": "uint256",
              "name": "dealAgreedAt",
              "type": "uint256"
            },
            {
              "internalType": "uint256",
              "name": "resultsSubmittedAt",
              "type": "uint256"
            },
            {
              "internalType": "uint256",
              "name": "resultsAcceptedAt",
              "type": "uint256"
            },
            {
              "internalType": "uint256",
              "name": "resultsCheckedAt",
              "type": "uint256"
            },
            {
              "internalType": "uint256",
              "name": "mediationAcceptedAt",
              "type": "uint256"
            },
            {
              "internalType": "uint256",
              "name": "mediationRejectedAt",
              "type": "uint256"
            },
            {
              "internalType": "uint256",
              "name": "timeoutAgreeAt",
              "type": "uint256"
            },
            {
              "internalType": "uint256",
              "name": "timeoutSubmitResultsAt",
              "type": "uint256"
            },
            {
              "internalType": "uint256",
              "name": "timeoutJudgeResultsAt",
              "type": "uint256"
            },
            {
              "internalType": "uint256",
              "name": "timeoutMediateResultsAt",
              "type": "uint256"
            }
          ],
          "internalType": "struct SharedStructs.Agreement",
          "name": "",
          "type": "tuple"
        }
      ],
      "stateMutability": "view",
      "type": "function"
    },
    {
      "inputs": [],
      "name": "getControllerAddress",
      "outputs": [
        {
          "internalType": "address",
          "name": "",
          "type": "address"
        }
      ],
      "stateMutability": "view",
      "type": "function"
    },
    {
      "inputs": [
        {
          "internalType": "string",
          "name": "dealId",
          "type": "string"
        }
      ],
      "name": "getDeal",
      "outputs": [
        {
          "components": [
            {
              "internalType": "string",
              "name": "dealId",
              "type": "string"
            },
            {
              "components": [
                {
                  "internalType": "address",
                  "name": "solver",
                  "type": "address"
                },
                {
                  "internalType": "address",
                  "name": "jobCreator",
                  "type": "address"
                },
                {
                  "internalType": "address",
                  "name": "resourceProvider",
                  "type": "address"
                },
                {
                  "internalType": "address[]",
                  "name": "mediators",
                  "type": "address[]"
                }
              ],
              "internalType": "struct SharedStructs.DealMembers",
              "name": "members",
              "type": "tuple"
            },
            {
              "components": [
                {
                  "components": [
                    {
                      "internalType": "uint256",
                      "name": "timeout",
                      "type": "uint256"
                    },
                    {
                      "internalType": "uint256",
                      "name": "collateral",
                      "type": "uint256"
                    }
                  ],
                  "internalType": "struct SharedStructs.DealTimeout",
                  "name": "agree",
                  "type": "tuple"
                },
                {
                  "components": [
                    {
                      "internalType": "uint256",
                      "name": "timeout",
                      "type": "uint256"
                    },
                    {
                      "internalType": "uint256",
                      "name": "collateral",
                      "type": "uint256"
                    }
                  ],
                  "internalType": "struct SharedStructs.DealTimeout",
                  "name": "submitResults",
                  "type": "tuple"
                },
                {
                  "components": [
                    {
                      "internalType": "uint256",
                      "name": "timeout",
                      "type": "uint256"
                    },
                    {
                      "internalType": "uint256",
                      "name": "collateral",
                      "type": "uint256"
                    }
                  ],
                  "internalType": "struct SharedStructs.DealTimeout",
                  "name": "judgeResults",
                  "type": "tuple"
                },
                {
                  "components": [
                    {
                      "internalType": "uint256",
                      "name": "timeout",
                      "type": "uint256"
                    },
                    {
                      "internalType": "uint256",
                      "name": "collateral",
                      "type": "uint256"
                    }
                  ],
                  "internalType": "struct SharedStructs.DealTimeout",
                  "name": "mediateResults",
                  "type": "tuple"
                }
              ],
              "internalType": "struct SharedStructs.DealTimeouts",
              "name": "timeouts",
              "type": "tuple"
            },
            {
              "components": [
                {
                  "internalType": "uint256",
                  "name": "instructionPrice",
                  "type": "uint256"
                },
                {
                  "internalType": "uint256",
                  "name": "paymentCollateral",
                  "type": "uint256"
                },
                {
                  "internalType": "uint256",
                  "name": "resultsCollateralMultiple",
                  "type": "uint256"
                },
                {
                  "internalType": "uint256",
                  "name": "mediationFee",
                  "type": "uint256"
                }
              ],
              "internalType": "struct SharedStructs.DealPricing",
              "name": "pricing",
              "type": "tuple"
            }
          ],
          "internalType": "struct SharedStructs.Deal",
          "name": "",
          "type": "tuple"
        }
      ],
      "stateMutability": "view",
      "type": "function"
    },
    {
      "inputs": [
        {
          "internalType": "address",
          "name": "party",
          "type": "address"
        }
      ],
      "name": "getDealsForParty",
      "outputs": [
        {
          "internalType": "string[]",
          "name": "",
          "type": "string[]"
        }
      ],
      "stateMutability": "view",
      "type": "function"
    },
    {
      "inputs": [
        {
          "internalType": "string",
          "name": "dealId",
          "type": "string"
        }
      ],
      "name": "getJobCost",
      "outputs": [
        {
          "internalType": "uint256",
          "name": "",
          "type": "uint256"
        }
      ],
      "stateMutability": "view",
      "type": "function"
    },
    {
      "inputs": [
        {
          "internalType": "string",
          "name": "dealId",
          "type": "string"
        }
      ],
      "name": "getResult",
      "outputs": [
        {
          "components": [
            {
              "internalType": "string",
              "name": "dealId",
              "type": "string"
            },
            {
              "internalType": "string",
              "name": "resultsId",
              "type": "string"
            },
            {
              "internalType": "string",
              "name": "dataId",
              "type": "string"
            },
            {
              "internalType": "uint256",
              "name": "instructionCount",
              "type": "uint256"
            }
          ],
          "internalType": "struct SharedStructs.Result",
          "name": "",
          "type": "tuple"
        }
      ],
      "stateMutability": "view",
      "type": "function"
    },
    {
      "inputs": [
        {
          "internalType": "string",
          "name": "dealId",
          "type": "string"
        }
      ],
      "name": "getResultsCollateral",
      "outputs": [
        {
          "internalType": "uint256",
          "name": "",
          "type": "uint256"
        }
      ],
      "stateMutability": "view",
      "type": "function"
    },
    {
      "inputs": [
        {
          "internalType": "string",
          "name": "dealId",
          "type": "string"
        }
      ],
      "name": "hasDeal",
      "outputs": [
        {
          "internalType": "bool",
          "name": "",
          "type": "bool"
        }
      ],
      "stateMutability": "view",
      "type": "function"
    },
    {
      "inputs": [],
      "name": "initialize",
      "outputs": [],
      "stateMutability": "nonpayable",
      "type": "function"
    },
    {
      "inputs": [
        {
          "internalType": "string",
          "name": "dealId",
          "type": "string"
        },
        {
          "internalType": "enum SharedStructs.AgreementState",
          "name": "state",
          "type": "uint8"
        }
      ],
      "name": "isState",
      "outputs": [
        {
          "internalType": "bool",
          "name": "",
          "type": "bool"
        }
      ],
      "stateMutability": "view",
      "type": "function"
    },
    {
      "inputs": [
        {
          "internalType": "string",
          "name": "dealId",
          "type": "string"
        }
      ],
      "name": "mediationAcceptResult",
      "outputs": [],
      "stateMutability": "nonpayable",
      "type": "function"
    },
    {
      "inputs": [
        {
          "internalType": "string",
          "name": "dealId",
          "type": "string"
        }
      ],
      "name": "mediationRejectResult",
      "outputs": [],
      "stateMutability": "nonpayable",
      "type": "function"
    },
    {
      "inputs": [],
      "name": "owner",
      "outputs": [
        {
          "internalType": "address",
          "name": "",
          "type": "address"
        }
      ],
      "stateMutability": "view",
      "type": "function"
    },
    {
      "inputs": [],
      "name": "renounceOwnership",
      "outputs": [],
      "stateMutability": "nonpayable",
      "type": "function"
    },
    {
      "inputs": [
        {
          "internalType": "address",
          "name": "_controllerAddress",
          "type": "address"
        }
      ],
      "name": "setControllerAddress",
      "outputs": [],
      "stateMutability": "nonpayable",
      "type": "function"
    },
    {
      "inputs": [
        {
          "internalType": "string",
          "name": "dealId",
          "type": "string"
        }
      ],
      "name": "timeoutAgree",
      "outputs": [],
      "stateMutability": "nonpayable",
      "type": "function"
    },
    {
      "inputs": [
        {
          "internalType": "string",
          "name": "dealId",
          "type": "string"
        }
      ],
      "name": "timeoutJudgeResult",
      "outputs": [],
      "stateMutability": "nonpayable",
      "type": "function"
    },
    {
      "inputs": [
        {
          "internalType": "string",
          "name": "dealId",
          "type": "string"
        }
      ],
      "name": "timeoutMediateResult",
      "outputs": [],
      "stateMutability": "nonpayable",
      "type": "function"
    },
    {
      "inputs": [
        {
          "internalType": "string",
          "name": "dealId",
          "type": "string"
        }
      ],
      "name": "timeoutSubmitResult",
      "outputs": [],
      "stateMutability": "nonpayable",
      "type": "function"
    },
    {
      "inputs": [
        {
          "internalType": "address",
          "name": "newOwner",
          "type": "address"
        }
      ],
      "name": "transferOwnership",
      "outputs": [],
      "stateMutability": "nonpayable",
      "type": "function"
    }
  ],
  "transactionHash": "0x165e53b7c419a09a7b35f7c1f97517a7bbfbab58e35dbcf4416aa776b698ff58",
  "args": [],
  "numDeployments": 2,
  "solcInputHash": "a6966b04a4229b8e398fe4ffec86229e",
  "bytecode": "0x608060405260018060146101000a81548160ff0219169083151502179055506001600260146101000a81548160ff02191690831515021790555034801562000045575f80fd5b50620000666200005a6200006c60201b60201c565b6200007360201b60201c565b62000134565b5f33905090565b5f805f9054906101000a900473ffffffffffffffffffffffffffffffffffffffff169050815f806101000a81548173ffffffffffffffffffffffffffffffffffffffff021916908373ffffffffffffffffffffffffffffffffffffffff1602179055508173ffffffffffffffffffffffffffffffffffffffff168173ffffffffffffffffffffffffffffffffffffffff167f8be0079c531659141344cd1fd0a4f28419497f9722a3daafe3b4186f6b6457e060405160405180910390a35050565b61509880620001425f395ff3fe608060405234801561000f575f80fd5b50600436106101a7575f3560e01c80638224ce5f116100f7578063cdd82d1d11610095578063e850be371161006f578063e850be37146104d9578063ec95b967146104f5578063f2fde38b14610525578063f3d3d44814610541576101a7565b8063cdd82d1d1461045d578063e70791801461048d578063e7b957d1146104bd576101a7565b8063a4702958116100d1578063a4702958146103d5578063a6370b0e146103df578063b050e74b1461040f578063c57380a21461043f576101a7565b80638224ce5f1461036b578063824518aa1461039b5780638da5cb5b146103b7576101a7565b8063498cc70d1161016457806373db5c6a1161013e57806373db5c6a146102f9578063795f9abf1461032957806380ffdfe0146103455780638129fc1c14610361576101a7565b8063498cc70d146102a3578063511a9f68146102d3578063715018a6146102ef576101a7565b806311d5af33146101ab5780632244ad2b146101db578063297f9e551461020b5780633955548e146102275780633c4135da1461025757806346834d1e14610287575b5f80fd5b6101c560048036038101906101c091906130f9565b61055d565b6040516101d29190613269565b60405180910390f35b6101f560048036038101906101f091906133b5565b61066e565b6040516102029190613416565b60405180910390f35b610225600480360381019061022091906133b5565b610685565b005b610241600480360381019061023c9190613462565b61070c565b60405161024e9190613597565b60405180910390f35b610271600480360381019061026c91906133b5565b610a4d565b60405161027e9190613748565b60405180910390f35b6102a1600480360381019061029c91906133b5565b610c24565b005b6102bd60048036038101906102b891906133b5565b610cab565b6040516102ca9190613597565b60405180910390f35b6102ed60048036038101906102e891906133b5565b610e9c565b005b6102f7610f23565b005b610313600480360381019061030e91906133b5565b610f36565b6040516103209190613771565b60405180910390f35b610343600480360381019061033e91906133b5565b610f8e565b005b61035f600480360381019061035a91906133b5565b611014565b005b61036961109b565b005b610385600480360381019061038091906133b5565b6111d2565b6040516103929190613771565b60405180910390f35b6103b560048036038101906103b091906133b5565b611212565b005b6103bf611299565b6040516103cc9190613799565b60405180910390f35b6103dd6112c0565b005b6103f960048036038101906103f49190613a47565b6112e4565b6040516104069190613d39565b60405180910390f35b61042960048036038101906104249190613d7c565b6119c2565b6040516104369190613416565b60405180910390f35b610447611a5a565b6040516104549190613799565b60405180910390f35b610477600480360381019061047291906133b5565b611a82565b6040516104849190613748565b60405180910390f35b6104a760048036038101906104a291906133b5565b611b76565b6040516104b49190613d39565b60405180910390f35b6104d760048036038101906104d291906133b5565b611ec4565b005b6104f360048036038101906104ee91906133b5565b611f4b565b005b61050f600480360381019061050a91906133b5565b611fd2565b60405161051c9190613748565b60405180910390f35b61053f600480360381019061053a91906130f9565b6121a9565b005b61055b600480360381019061055691906130f9565b61222b565b005b606060045f8373ffffffffffffffffffffffffffffffffffffffff1673ffffffffffffffffffffffffffffffffffffffff1681526020019081526020015f20805480602002602001604051908101604052809291908181526020015f905b82821015610663578382905f5260205f200180546105d890613e03565b80601f016020809104026020016040519081016040528092919081815260200182805461060490613e03565b801561064f5780601f106106265761010080835404028352916020019161064f565b820191905f5260205f20905b81548152906001019060200180831161063257829003601f168201915b5050505050815260200190600101906105bb565b505050509050919050565b5f8061067983611b76565b5f015151119050919050565b61068d612333565b506106998160026119c2565b6106d8576040517f08c379a00000000000000000000000000000000000000000000000000000000081526004016106cf90613e8d565b60405180910390fd5b426005826040516106e99190613ee5565b908152602001604051809103902060060181905550610709816003612460565b50565b610714612e35565b61071c612333565b506107288560016119c2565b610767576040517f08c379a000000000000000000000000000000000000000000000000000000000815260040161075e90613f45565b60405180910390fd5b426005866040516107789190613ee5565b908152602001604051809103902060050181905550610798856002612460565b6040518060800160405280868152602001858152602001848152602001838152506006866040516107c99190613ee5565b90815260200160405180910390205f820151815f0190816107ea9190614100565b5060208201518160010190816108009190614100565b5060408201518160020190816108169190614100565b50606082015181600301559050507f0ff955ec0ee856bc2600be3542a22fb4e34ce6315759d5a35f4671581583cb16858585856040516108599493929190614207565b60405180910390a16006856040516108719190613ee5565b90815260200160405180910390206040518060800160405290815f8201805461089990613e03565b80601f01602080910402602001604051908101604052809291908181526020018280546108c590613e03565b80156109105780601f106108e757610100808354040283529160200191610910565b820191905f5260205f20905b8154815290600101906020018083116108f357829003601f168201915b5050505050815260200160018201805461092990613e03565b80601f016020809104026020016040519081016040528092919081815260200182805461095590613e03565b80156109a05780601f10610977576101008083540402835291602001916109a0565b820191905f5260205f20905b81548152906001019060200180831161098357829003601f168201915b505050505081526020016002820180546109b990613e03565b80601f01602080910402602001604051908101604052809291908181526020018280546109e590613e03565b8015610a305780601f10610a0757610100808354040283529160200191610a30565b820191905f5260205f20905b815481529060010190602001808311610a1357829003601f168201915b505050505081526020016003820154815250509050949350505050565b610a55612e5c565b610a5d612333565b50610a678261066e565b610aa6576040517f08c379a0000000000000000000000000000000000000000000000000000000008152600401610a9d906142a9565b60405180910390fd5b5f600583604051610ab79190613ee5565b90815260200160405180910390206002015414610b09576040517f08c379a0000000000000000000000000000000000000000000000000000000008152600401610b0090614311565b60405180910390fd5b42600583604051610b1a9190613ee5565b908152602001604051809103902060020181905550610b38826124e4565b600582604051610b489190613ee5565b9081526020016040518091039020604051806101c00160405290815f82015f9054906101000a900460ff16600a811115610b8557610b846135b7565b5b600a811115610b9757610b966135b7565b5b8152602001600182015481526020016002820154815260200160038201548152602001600482015481526020016005820154815260200160068201548152602001600782015481526020016008820154815260200160098201548152602001600a8201548152602001600b8201548152602001600c8201548152602001600d820154815250509050919050565b610c2c612333565b50610c388160026119c2565b610c77576040517f08c379a0000000000000000000000000000000000000000000000000000000008152600401610c6e90613e8d565b60405180910390fd5b42600582604051610c889190613ee5565b908152602001604051809103902060070181905550610ca8816004612460565b50565b610cb3612e35565b600682604051610cc39190613ee5565b90815260200160405180910390206040518060800160405290815f82018054610ceb90613e03565b80601f0160208091040260200160405190810160405280929190818152602001828054610d1790613e03565b8015610d625780601f10610d3957610100808354040283529160200191610d62565b820191905f5260205f20905b815481529060010190602001808311610d4557829003601f168201915b50505050508152602001600182018054610d7b90613e03565b80601f0160208091040260200160405190810160405280929190818152602001828054610da790613e03565b8015610df25780601f10610dc957610100808354040283529160200191610df2565b820191905f5260205f20905b815481529060010190602001808311610dd557829003601f168201915b50505050508152602001600282018054610e0b90613e03565b80601f0160208091040260200160405190810160405280929190818152602001828054610e3790613e03565b8015610e825780601f10610e5957610100808354040283529160200191610e82565b820191905f5260205f20905b815481529060010190602001808311610e6557829003601f168201915b505050505081526020016003820154815250509050919050565b610ea4612333565b50610eb08160016119c2565b610eef576040517f08c379a0000000000000000000000000000000000000000000000000000000008152600401610ee690613f45565b60405180910390fd5b42600582604051610f009190613ee5565b9081526020016040518091039020600b0181905550610f20816008612460565b50565b610f2b61259b565b610f345f612619565b565b5f600682604051610f479190613ee5565b908152602001604051809103902060030154600383604051610f699190613ee5565b9081526020016040518091039020600d015f0154610f87919061435c565b9050919050565b610f96612333565b50610fa1815f6119c2565b610fe0576040517f08c379a0000000000000000000000000000000000000000000000000000000008152600401610fd7906143e7565b60405180910390fd5b42600582604051610ff19190613ee5565b9081526020016040518091039020600a0181905550611011816007612460565b50565b61101c612333565b506110288160046119c2565b611067576040517f08c379a000000000000000000000000000000000000000000000000000000000815260040161105e9061444f565b60405180910390fd5b426005826040516110789190613ee5565b908152602001604051809103902060090181905550611098816006612460565b50565b5f600160169054906101000a900460ff161590508080156110cd575060018060159054906101000a900460ff1660ff16105b806110fb57506110dc306126da565b1580156110fa575060018060159054906101000a900460ff1660ff16145b5b61113a576040517f08c379a0000000000000000000000000000000000000000000000000000000008152600401611131906144dd565b60405180910390fd5b60018060156101000a81548160ff021916908360ff16021790555080156111765760018060166101000a81548160ff0219169083151502179055505b80156111cf575f600160166101000a81548160ff0219169083151502179055507f7f26b83ff96e1f2b6a682f133852f6798a09c465da95921460cefb384740249860016040516111c69190614540565b60405180910390a15b50565b5f6111dc82610f36565b6003836040516111ec9190613ee5565b9081526020016040518091039020600d016002015461120b919061435c565b9050919050565b61121a612333565b506112268160046119c2565b611265576040517f08c379a000000000000000000000000000000000000000000000000000000000815260040161125c9061444f565b60405180910390fd5b426005826040516112769190613ee5565b908152602001604051809103902060080181905550611296816005612460565b50565b5f805f9054906101000a900473ffffffffffffffffffffffffffffffffffffffff16905090565b6112c861259b565b5f600160146101000a81548160ff021916908315150217905550565b6112ec612ecf565b6112f4612333565b506112ff855f6119c2565b61133e576040517f08c379a0000000000000000000000000000000000000000000000000000000008152600401611335906143e7565b60405180910390fd5b611347846126fc565b61135083612911565b6113598561066e565b1561139a575f61136886611b76565b90506113788160200151866129a7565b611386816040015185612c24565b611394816060015184612c6e565b50611679565b6040518060800160405280868152602001858152602001848152602001838152506003866040516113cb9190613ee5565b90815260200160405180910390205f820151815f0190816113ec9190614100565b506020820151816001015f820151815f015f6101000a81548173ffffffffffffffffffffffffffffffffffffffff021916908373ffffffffffffffffffffffffffffffffffffffff1602179055506020820151816001015f6101000a81548173ffffffffffffffffffffffffffffffffffffffff021916908373ffffffffffffffffffffffffffffffffffffffff1602179055506040820151816002015f6101000a81548173ffffffffffffffffffffffffffffffffffffffff021916908373ffffffffffffffffffffffffffffffffffffffff16021790555060608201518160030190805190602001906114e2929190612f09565b5050506040820151816005015f820151815f015f820151815f01556020820151816001015550506020820151816002015f820151815f01556020820151816001015550506040820151816004015f820151815f01556020820151816001015550506060820151816006015f820151815f01556020820151816001015550505050606082015181600d015f820151815f0155602082015181600101556040820151816002015560608201518160030155505090505060045f856040015173ffffffffffffffffffffffffffffffffffffffff1673ffffffffffffffffffffffffffffffffffffffff1681526020019081526020015f2085908060018154018082558091505060019003905f5260205f20015f9091909190915090816116069190614100565b5060045f856020015173ffffffffffffffffffffffffffffffffffffffff1673ffffffffffffffffffffffffffffffffffffffff1681526020019081526020015f2085908060018154018082558091505060019003905f5260205f20015f9091909190915090816116779190614100565b505b6003856040516116899190613ee5565b90815260200160405180910390206040518060800160405290815f820180546116b190613e03565b80601f01602080910402602001604051908101604052809291908181526020018280546116dd90613e03565b80156117285780601f106116ff57610100808354040283529160200191611728565b820191905f5260205f20905b81548152906001019060200180831161170b57829003601f168201915b50505050508152602001600182016040518060800160405290815f82015f9054906101000a900473ffffffffffffffffffffffffffffffffffffffff1673ffffffffffffffffffffffffffffffffffffffff1673ffffffffffffffffffffffffffffffffffffffff168152602001600182015f9054906101000a900473ffffffffffffffffffffffffffffffffffffffff1673ffffffffffffffffffffffffffffffffffffffff1673ffffffffffffffffffffffffffffffffffffffff168152602001600282015f9054906101000a900473ffffffffffffffffffffffffffffffffffffffff1673ffffffffffffffffffffffffffffffffffffffff1673ffffffffffffffffffffffffffffffffffffffff168152602001600382018054806020026020016040519081016040528092919081815260200182805480156118c157602002820191905f5260205f20905b815f9054906101000a900473ffffffffffffffffffffffffffffffffffffffff1673ffffffffffffffffffffffffffffffffffffffff1681526020019060010190808311611878575b5050505050815250508152602001600582016040518060800160405290815f82016040518060400160405290815f82015481526020016001820154815250508152602001600282016040518060400160405290815f82015481526020016001820154815250508152602001600482016040518060400160405290815f82015481526020016001820154815250508152602001600682016040518060400160405290815f8201548152602001600182015481525050815250508152602001600d82016040518060800160405290815f82015481526020016001820154815260200160028201548152602001600382015481525050815250509050949350505050565b5f6119cc8361066e565b6119fe575f600a8111156119e3576119e26135b7565b5b82600a8111156119f6576119f56135b7565b5b149050611a54565b81600a811115611a1157611a106135b7565b5b600584604051611a219190613ee5565b90815260200160405180910390205f015f9054906101000a900460ff16600a811115611a5057611a4f6135b7565b5b1490505b92915050565b5f60015f9054906101000a900473ffffffffffffffffffffffffffffffffffffffff16905090565b611a8a612e5c565b600582604051611a9a9190613ee5565b9081526020016040518091039020604051806101c00160405290815f82015f9054906101000a900460ff16600a811115611ad757611ad66135b7565b5b600a811115611ae957611ae86135b7565b5b8152602001600182015481526020016002820154815260200160038201548152602001600482015481526020016005820154815260200160068201548152602001600782015481526020016008820154815260200160098201548152602001600a8201548152602001600b8201548152602001600c8201548152602001600d820154815250509050919050565b611b7e612ecf565b600382604051611b8e9190613ee5565b90815260200160405180910390206040518060800160405290815f82018054611bb690613e03565b80601f0160208091040260200160405190810160405280929190818152602001828054611be290613e03565b8015611c2d5780601f10611c0457610100808354040283529160200191611c2d565b820191905f5260205f20905b815481529060010190602001808311611c1057829003601f168201915b50505050508152602001600182016040518060800160405290815f82015f9054906101000a900473ffffffffffffffffffffffffffffffffffffffff1673ffffffffffffffffffffffffffffffffffffffff1673ffffffffffffffffffffffffffffffffffffffff168152602001600182015f9054906101000a900473ffffffffffffffffffffffffffffffffffffffff1673ffffffffffffffffffffffffffffffffffffffff1673ffffffffffffffffffffffffffffffffffffffff168152602001600282015f9054906101000a900473ffffffffffffffffffffffffffffffffffffffff1673ffffffffffffffffffffffffffffffffffffffff1673ffffffffffffffffffffffffffffffffffffffff16815260200160038201805480602002602001604051908101604052809291908181526020018280548015611dc657602002820191905f5260205f20905b815f9054906101000a900473ffffffffffffffffffffffffffffffffffffffff1673ffffffffffffffffffffffffffffffffffffffff1681526020019060010190808311611d7d575b5050505050815250508152602001600582016040518060800160405290815f82016040518060400160405290815f82015481526020016001820154815250508152602001600282016040518060400160405290815f82015481526020016001820154815250508152602001600482016040518060400160405290815f82015481526020016001820154815250508152602001600682016040518060400160405290815f8201548152602001600182015481525050815250508152602001600d82016040518060800160405290815f82015481526020016001820154815260200160028201548152602001600382015481525050815250509050919050565b611ecc612333565b50611ed88160046119c2565b611f17576040517f08c379a0000000000000000000000000000000000000000000000000000000008152600401611f0e9061444f565b60405180910390fd5b42600582604051611f289190613ee5565b9081526020016040518091039020600d0181905550611f4881600a612460565b50565b611f53612333565b50611f5f8160026119c2565b611f9e576040517f08c379a0000000000000000000000000000000000000000000000000000000008152600401611f9590613e8d565b60405180910390fd5b42600582604051611faf9190613ee5565b9081526020016040518091039020600c0181905550611fcf816009612460565b50565b611fda612e5c565b611fe2612333565b50611fec8261066e565b61202b576040517f08c379a0000000000000000000000000000000000000000000000000000000008152600401612022906142a9565b60405180910390fd5b5f60058360405161203c9190613ee5565b9081526020016040518091039020600101541461208e576040517f08c379a0000000000000000000000000000000000000000000000000000000008152600401612085906145a3565b60405180910390fd5b4260058360405161209f9190613ee5565b9081526020016040518091039020600101819055506120bd826124e4565b6005826040516120cd9190613ee5565b9081526020016040518091039020604051806101c00160405290815f82015f9054906101000a900460ff16600a81111561210a576121096135b7565b5b600a81111561211c5761211b6135b7565b5b8152602001600182015481526020016002820154815260200160038201548152602001600482015481526020016005820154815260200160068201548152602001600782015481526020016008820154815260200160098201548152602001600a8201548152602001600b8201548152602001600c8201548152602001600d820154815250509050919050565b6121b161259b565b5f73ffffffffffffffffffffffffffffffffffffffff168173ffffffffffffffffffffffffffffffffffffffff160361221f576040517f08c379a000000000000000000000000000000000000000000000000000000000815260040161221690614631565b60405180910390fd5b61222881612619565b50565b61223361259b565b5f73ffffffffffffffffffffffffffffffffffffffff168173ffffffffffffffffffffffffffffffffffffffff16036122a1576040517f08c379a0000000000000000000000000000000000000000000000000000000008152600401612298906146bf565b60405180910390fd5b600160149054906101000a900460ff166122f0576040517f08c379a00000000000000000000000000000000000000000000000000000000081526004016122e79061474d565b60405180910390fd5b8060015f6101000a81548173ffffffffffffffffffffffffffffffffffffffff021916908373ffffffffffffffffffffffffffffffffffffffff16021790555050565b5f8073ffffffffffffffffffffffffffffffffffffffff1660015f9054906101000a900473ffffffffffffffffffffffffffffffffffffffff1673ffffffffffffffffffffffffffffffffffffffff16036123c3576040517f08c379a00000000000000000000000000000000000000000000000000000000081526004016123ba906146bf565b60405180910390fd5b60015f9054906101000a900473ffffffffffffffffffffffffffffffffffffffff1673ffffffffffffffffffffffffffffffffffffffff16612403612d98565b73ffffffffffffffffffffffffffffffffffffffff1614612459576040517f08c379a0000000000000000000000000000000000000000000000000000000008152600401612450906147db565b60405180910390fd5b6001905090565b806005836040516124719190613ee5565b90815260200160405180910390205f015f6101000a81548160ff0219169083600a8111156124a2576124a16135b7565b5b02179055507f10ca3d89184491f5d8de422bd36534abe6eb4b4aa1429a261bdb5ff1dd9ac38682826040516124d8929190614808565b60405180910390a15050565b5f6005826040516124f59190613ee5565b9081526020016040518091039020600101541415801561253657505f6005826040516125219190613ee5565b90815260200160405180910390206002015414155b15612571574260058260405161254c9190613ee5565b90815260200160405180910390206004018190555061256c816001612460565b612598565b426005826040516125829190613ee5565b9081526020016040518091039020600301819055505b50565b6125a3612d98565b73ffffffffffffffffffffffffffffffffffffffff166125c1611299565b73ffffffffffffffffffffffffffffffffffffffff1614612617576040517f08c379a000000000000000000000000000000000000000000000000000000000815260040161260e90614880565b60405180910390fd5b565b5f805f9054906101000a900473ffffffffffffffffffffffffffffffffffffffff169050815f806101000a81548173ffffffffffffffffffffffffffffffffffffffff021916908373ffffffffffffffffffffffffffffffffffffffff1602179055508173ffffffffffffffffffffffffffffffffffffffff168173ffffffffffffffffffffffffffffffffffffffff167f8be0079c531659141344cd1fd0a4f28419497f9722a3daafe3b4186f6b6457e060405160405180910390a35050565b5f808273ffffffffffffffffffffffffffffffffffffffff163b119050919050565b5f73ffffffffffffffffffffffffffffffffffffffff16816040015173ffffffffffffffffffffffffffffffffffffffff160361276e576040517f08c379a0000000000000000000000000000000000000000000000000000000008152600401612765906148e8565b60405180910390fd5b5f73ffffffffffffffffffffffffffffffffffffffff16816020015173ffffffffffffffffffffffffffffffffffffffff16036127e0576040517f08c379a00000000000000000000000000000000000000000000000000000000081526004016127d790614950565b60405180910390fd5b5f73ffffffffffffffffffffffffffffffffffffffff16815f015173ffffffffffffffffffffffffffffffffffffffff1603612851576040517f08c379a0000000000000000000000000000000000000000000000000000000008152600401612848906149b8565b60405180910390fd5b5f81606001515111612898576040517f08c379a000000000000000000000000000000000000000000000000000000000815260040161288f90614a20565b60405180910390fd5b806020015173ffffffffffffffffffffffffffffffffffffffff16816040015173ffffffffffffffffffffffffffffffffffffffff160361290e576040517f08c379a000000000000000000000000000000000000000000000000000000000815260040161290590614a88565b60405180910390fd5b50565b5f815f0151602001511461295a576040517f08c379a000000000000000000000000000000000000000000000000000000000815260040161295190614af0565b60405180910390fd5b5f816060015160200151146129a4576040517f08c379a000000000000000000000000000000000000000000000000000000000815260040161299b90614b58565b60405180910390fd5b50565b806040015173ffffffffffffffffffffffffffffffffffffffff16826040015173ffffffffffffffffffffffffffffffffffffffff1614612a1d576040517f08c379a0000000000000000000000000000000000000000000000000000000008152600401612a1490614bc0565b60405180910390fd5b806020015173ffffffffffffffffffffffffffffffffffffffff16826020015173ffffffffffffffffffffffffffffffffffffffff1614612a93576040517f08c379a0000000000000000000000000000000000000000000000000000000008152600401612a8a90614c28565b60405180910390fd5b805f015173ffffffffffffffffffffffffffffffffffffffff16825f015173ffffffffffffffffffffffffffffffffffffffff1614612b07576040517f08c379a0000000000000000000000000000000000000000000000000000000008152600401612afe90614c90565b60405180910390fd5b80606001515182606001515114612b53576040517f08c379a0000000000000000000000000000000000000000000000000000000008152600401612b4a90614cf8565b60405180910390fd5b5f5b826060015151811015612c1f5781606001518181518110612b7957612b78614d16565b5b602002602001015173ffffffffffffffffffffffffffffffffffffffff1683606001518281518110612bae57612bad614d16565b5b602002602001015173ffffffffffffffffffffffffffffffffffffffff1614612c0c576040517f08c379a0000000000000000000000000000000000000000000000000000000008152600401612c0390614d8d565b60405180910390fd5b8080612c1790614dab565b915050612b55565b505050565b612c34825f0151825f0151612d9f565b612c4682602001518260200151612d9f565b612c5882604001518260400151612d9f565b612c6a82606001518260600151612d9f565b5050565b805f0151825f015114612cb6576040517f08c379a0000000000000000000000000000000000000000000000000000000008152600401612cad90614e3c565b60405180910390fd5b8060200151826020015114612d00576040517f08c379a0000000000000000000000000000000000000000000000000000000008152600401612cf790614ea4565b60405180910390fd5b8060400151826040015114612d4a576040517f08c379a0000000000000000000000000000000000000000000000000000000008152600401612d4190614f0c565b60405180910390fd5b8060600151826060015114612d94576040517f08c379a0000000000000000000000000000000000000000000000000000000008152600401612d8b90614f74565b60405180910390fd5b5050565b5f33905090565b805f0151825f015114612de7576040517f08c379a0000000000000000000000000000000000000000000000000000000008152600401612dde90614fdc565b60405180910390fd5b8060200151826020015114612e31576040517f08c379a0000000000000000000000000000000000000000000000000000000008152600401612e2890615044565b60405180910390fd5b5050565b60405180608001604052806060815260200160608152602001606081526020015f81525090565b604051806101c001604052805f600a811115612e7b57612e7a6135b7565b5b81526020015f81526020015f81526020015f81526020015f81526020015f81526020015f81526020015f81526020015f81526020015f81526020015f81526020015f81526020015f81526020015f81525090565b604051806080016040528060608152602001612ee9612f90565b8152602001612ef6612ff7565b8152602001612f03613037565b81525090565b828054828255905f5260205f20908101928215612f7f579160200282015b82811115612f7e578251825f6101000a81548173ffffffffffffffffffffffffffffffffffffffff021916908373ffffffffffffffffffffffffffffffffffffffff16021790555091602001919060010190612f27565b5b509050612f8c919061305b565b5090565b60405180608001604052805f73ffffffffffffffffffffffffffffffffffffffff1681526020015f73ffffffffffffffffffffffffffffffffffffffff1681526020015f73ffffffffffffffffffffffffffffffffffffffff168152602001606081525090565b604051806080016040528061300a613076565b8152602001613017613076565b8152602001613024613076565b8152602001613031613076565b81525090565b60405180608001604052805f81526020015f81526020015f81526020015f81525090565b5b80821115613072575f815f90555060010161305c565b5090565b60405180604001604052805f81526020015f81525090565b5f604051905090565b5f80fd5b5f80fd5b5f73ffffffffffffffffffffffffffffffffffffffff82169050919050565b5f6130c88261309f565b9050919050565b6130d8816130be565b81146130e2575f80fd5b50565b5f813590506130f3816130cf565b92915050565b5f6020828403121561310e5761310d613097565b5b5f61311b848285016130e5565b91505092915050565b5f81519050919050565b5f82825260208201905092915050565b5f819050602082019050919050565b5f81519050919050565b5f82825260208201905092915050565b5f5b83811015613184578082015181840152602081019050613169565b5f8484015250505050565b5f601f19601f8301169050919050565b5f6131a98261314d565b6131b38185613157565b93506131c3818560208601613167565b6131cc8161318f565b840191505092915050565b5f6131e2838361319f565b905092915050565b5f602082019050919050565b5f61320082613124565b61320a818561312e565b93508360208202850161321c8561313e565b805f5b85811015613257578484038952815161323885826131d7565b9450613243836131ea565b925060208a0199505060018101905061321f565b50829750879550505050505092915050565b5f6020820190508181035f83015261328181846131f6565b905092915050565b5f80fd5b5f80fd5b7f4e487b71000000000000000000000000000000000000000000000000000000005f52604160045260245ffd5b6132c78261318f565b810181811067ffffffffffffffff821117156132e6576132e5613291565b5b80604052505050565b5f6132f861308e565b905061330482826132be565b919050565b5f67ffffffffffffffff82111561332357613322613291565b5b61332c8261318f565b9050602081019050919050565b828183375f83830152505050565b5f61335961335484613309565b6132ef565b9050828152602081018484840111156133755761337461328d565b5b613380848285613339565b509392505050565b5f82601f83011261339c5761339b613289565b5b81356133ac848260208601613347565b91505092915050565b5f602082840312156133ca576133c9613097565b5b5f82013567ffffffffffffffff8111156133e7576133e661309b565b5b6133f384828501613388565b91505092915050565b5f8115159050919050565b613410816133fc565b82525050565b5f6020820190506134295f830184613407565b92915050565b5f819050919050565b6134418161342f565b811461344b575f80fd5b50565b5f8135905061345c81613438565b92915050565b5f805f806080858703121561347a57613479613097565b5b5f85013567ffffffffffffffff8111156134975761349661309b565b5b6134a387828801613388565b945050602085013567ffffffffffffffff8111156134c4576134c361309b565b5b6134d087828801613388565b935050604085013567ffffffffffffffff8111156134f1576134f061309b565b5b6134fd87828801613388565b925050606061350e8782880161344e565b91505092959194509250565b6135238161342f565b82525050565b5f608083015f8301518482035f860152613543828261319f565b9150506020830151848203602086015261355d828261319f565b91505060408301518482036040860152613577828261319f565b915050606083015161358c606086018261351a565b508091505092915050565b5f6020820190508181035f8301526135af8184613529565b905092915050565b7f4e487b71000000000000000000000000000000000000000000000000000000005f52602160045260245ffd5b600b81106135f5576135f46135b7565b5b50565b5f819050613605826135e4565b919050565b5f613614826135f8565b9050919050565b6136248161360a565b82525050565b6101c082015f82015161363f5f85018261361b565b506020820151613652602085018261351a565b506040820151613665604085018261351a565b506060820151613678606085018261351a565b50608082015161368b608085018261351a565b5060a082015161369e60a085018261351a565b5060c08201516136b160c085018261351a565b5060e08201516136c460e085018261351a565b506101008201516136d961010085018261351a565b506101208201516136ee61012085018261351a565b5061014082015161370361014085018261351a565b5061016082015161371861016085018261351a565b5061018082015161372d61018085018261351a565b506101a08201516137426101a085018261351a565b50505050565b5f6101c08201905061375c5f83018461362a565b92915050565b61376b8161342f565b82525050565b5f6020820190506137845f830184613762565b92915050565b613793816130be565b82525050565b5f6020820190506137ac5f83018461378a565b92915050565b5f80fd5b5f80fd5b5f67ffffffffffffffff8211156137d4576137d3613291565b5b602082029050602081019050919050565b5f80fd5b5f6137fb6137f6846137ba565b6132ef565b9050808382526020820190506020840283018581111561381e5761381d6137e5565b5b835b81811015613847578061383388826130e5565b845260208401935050602081019050613820565b5050509392505050565b5f82601f83011261386557613864613289565b5b81356138758482602086016137e9565b91505092915050565b5f60808284031215613893576138926137b2565b5b61389d60806132ef565b90505f6138ac848285016130e5565b5f8301525060206138bf848285016130e5565b60208301525060406138d3848285016130e5565b604083015250606082013567ffffffffffffffff8111156138f7576138f66137b6565b5b61390384828501613851565b60608301525092915050565b5f60408284031215613924576139236137b2565b5b61392e60406132ef565b90505f61393d8482850161344e565b5f8301525060206139508482850161344e565b60208301525092915050565b5f6101008284031215613972576139716137b2565b5b61397c60806132ef565b90505f61398b8482850161390f565b5f83015250604061399e8482850161390f565b60208301525060806139b28482850161390f565b60408301525060c06139c68482850161390f565b60608301525092915050565b5f608082840312156139e7576139e66137b2565b5b6139f160806132ef565b90505f613a008482850161344e565b5f830152506020613a138482850161344e565b6020830152506040613a278482850161344e565b6040830152506060613a3b8482850161344e565b60608301525092915050565b5f805f806101c08587031215613a6057613a5f613097565b5b5f85013567ffffffffffffffff811115613a7d57613a7c61309b565b5b613a8987828801613388565b945050602085013567ffffffffffffffff811115613aaa57613aa961309b565b5b613ab68782880161387e565b9350506040613ac78782880161395c565b925050610140613ad9878288016139d2565b91505092959194509250565b613aee816130be565b82525050565b5f81519050919050565b5f82825260208201905092915050565b5f819050602082019050919050565b5f613b288383613ae5565b60208301905092915050565b5f602082019050919050565b5f613b4a82613af4565b613b548185613afe565b9350613b5f83613b0e565b805f5b83811015613b8f578151613b768882613b1d565b9750613b8183613b34565b925050600181019050613b62565b5085935050505092915050565b5f608083015f830151613bb15f860182613ae5565b506020830151613bc46020860182613ae5565b506040830151613bd76040860182613ae5565b5060608301518482036060860152613bef8282613b40565b9150508091505092915050565b604082015f820151613c105f85018261351a565b506020820151613c23602085018261351a565b50505050565b61010082015f820151613c3e5f850182613bfc565b506020820151613c516040850182613bfc565b506040820151613c646080850182613bfc565b506060820151613c7760c0850182613bfc565b50505050565b608082015f820151613c915f85018261351a565b506020820151613ca4602085018261351a565b506040820151613cb7604085018261351a565b506060820151613cca606085018261351a565b50505050565b5f6101c083015f8301518482035f860152613ceb828261319f565b91505060208301518482036020860152613d058282613b9c565b9150506040830151613d1a6040860182613c29565b506060830151613d2e610140860182613c7d565b508091505092915050565b5f6020820190508181035f830152613d518184613cd0565b905092915050565b600b8110613d65575f80fd5b50565b5f81359050613d7681613d59565b92915050565b5f8060408385031215613d9257613d91613097565b5b5f83013567ffffffffffffffff811115613daf57613dae61309b565b5b613dbb85828601613388565b9250506020613dcc85828601613d68565b9150509250929050565b7f4e487b71000000000000000000000000000000000000000000000000000000005f52602260045260245ffd5b5f6002820490506001821680613e1a57607f821691505b602082108103613e2d57613e2c613dd6565b5b50919050565b5f82825260208201905092915050565b7f526573756c74735375626d6974746564000000000000000000000000000000005f82015250565b5f613e77601083613e33565b9150613e8282613e43565b602082019050919050565b5f6020820190508181035f830152613ea481613e6b565b9050919050565b5f81905092915050565b5f613ebf8261314d565b613ec98185613eab565b9350613ed9818560208601613167565b80840191505092915050565b5f613ef08284613eb5565b915081905092915050565b7f4465616c416772656564000000000000000000000000000000000000000000005f82015250565b5f613f2f600a83613e33565b9150613f3a82613efb565b602082019050919050565b5f6020820190508181035f830152613f5c81613f23565b9050919050565b5f819050815f5260205f209050919050565b5f6020601f8301049050919050565b5f82821b905092915050565b5f60088302613fbf7fffffffffffffffffffffffffffffffffffffffffffffffffffffffffffffffff82613f84565b613fc98683613f84565b95508019841693508086168417925050509392505050565b5f819050919050565b5f614004613fff613ffa8461342f565b613fe1565b61342f565b9050919050565b5f819050919050565b61401d83613fea565b6140316140298261400b565b848454613f90565b825550505050565b5f90565b614045614039565b614050818484614014565b505050565b5b81811015614073576140685f8261403d565b600181019050614056565b5050565b601f8211156140b85761408981613f63565b61409284613f75565b810160208510156140a1578190505b6140b56140ad85613f75565b830182614055565b50505b505050565b5f82821c905092915050565b5f6140d85f19846008026140bd565b1980831691505092915050565b5f6140f083836140c9565b9150826002028217905092915050565b6141098261314d565b67ffffffffffffffff81111561412257614121613291565b5b61412c8254613e03565b614137828285614077565b5f60209050601f831160018114614168575f8415614156578287015190505b61416085826140e5565b8655506141c7565b601f19841661417686613f63565b5f5b8281101561419d57848901518255600182019150602085019450602081019050614178565b868310156141ba57848901516141b6601f8916826140c9565b8355505b6001600288020188555050505b505050505050565b5f6141d98261314d565b6141e38185613e33565b93506141f3818560208601613167565b6141fc8161318f565b840191505092915050565b5f6080820190508181035f83015261421f81876141cf565b9050818103602083015261423381866141cf565b9050818103604083015261424781856141cf565b90506142566060830184613762565b95945050505050565b7f4465616c20646f6573206e6f74206578697374000000000000000000000000005f82015250565b5f614293601383613e33565b915061429e8261425f565b602082019050919050565b5f6020820190508181035f8301526142c081614287565b9050919050565b7f4a432068617320616c72656164792061677265656400000000000000000000005f82015250565b5f6142fb601583613e33565b9150614306826142c7565b602082019050919050565b5f6020820190508181035f830152614328816142ef565b9050919050565b7f4e487b71000000000000000000000000000000000000000000000000000000005f52601160045260245ffd5b5f6143668261342f565b91506143718361342f565b925082820261437f8161342f565b915082820484148315176143965761439561432f565b5b5092915050565b7f4465616c4e65676f74696174696e6700000000000000000000000000000000005f82015250565b5f6143d1600f83613e33565b91506143dc8261439d565b602082019050919050565b5f6020820190508181035f8301526143fe816143c5565b9050919050565b7f526573756c7473436865636b65640000000000000000000000000000000000005f82015250565b5f614439600e83613e33565b915061444482614405565b602082019050919050565b5f6020820190508181035f8301526144668161442d565b9050919050565b7f496e697469616c697a61626c653a20636f6e747261637420697320616c7265615f8201527f647920696e697469616c697a6564000000000000000000000000000000000000602082015250565b5f6144c7602e83613e33565b91506144d28261446d565b604082019050919050565b5f6020820190508181035f8301526144f4816144bb565b9050919050565b5f819050919050565b5f60ff82169050919050565b5f61452a614525614520846144fb565b613fe1565b614504565b9050919050565b61453a81614510565b82525050565b5f6020820190506145535f830184614531565b92915050565b7f52502068617320616c72656164792061677265656400000000000000000000005f82015250565b5f61458d601583613e33565b915061459882614559565b602082019050919050565b5f6020820190508181035f8301526145ba81614581565b9050919050565b7f4f776e61626c653a206e6577206f776e657220697320746865207a65726f20615f8201527f6464726573730000000000000000000000000000000000000000000000000000602082015250565b5f61461b602683613e33565b9150614626826145c1565b604082019050919050565b5f6020820190508181035f8301526146488161460f565b9050919050565b7f436f6e74726f6c6c65724f776e61626c653a20436f6e74726f6c6c65722061645f8201527f6472657373206d75737420626520646566696e65640000000000000000000000602082015250565b5f6146a9603583613e33565b91506146b48261464f565b604082019050919050565b5f6020820190508181035f8301526146d68161469d565b9050919050565b7f436f6e74726f6c6c65724f776e61626c653a2063616e4368616e6765436f6e745f8201527f726f6c6c6572416464726573732069732064697361626c656400000000000000602082015250565b5f614737603983613e33565b9150614742826146dd565b604082019050919050565b5f6020820190508181035f8301526147648161472b565b9050919050565b7f436f6e74726f6c6c65724f776e61626c653a204f6e6c792074686520636f6e745f8201527f726f6c6c65722063616e2063616c6c2074686973206d6574686f640000000000602082015250565b5f6147c5603b83613e33565b91506147d08261476b565b604082019050919050565b5f6020820190508181035f8301526147f2816147b9565b9050919050565b6148028161360a565b82525050565b5f6040820190508181035f83015261482081856141cf565b905061482f60208301846147f9565b9392505050565b7f4f776e61626c653a2063616c6c6572206973206e6f7420746865206f776e65725f82015250565b5f61486a602083613e33565b915061487582614836565b602082019050919050565b5f6020820190508181035f8301526148978161485e565b9050919050565b7f5250206d697373696e67000000000000000000000000000000000000000000005f82015250565b5f6148d2600a83613e33565b91506148dd8261489e565b602082019050919050565b5f6020820190508181035f8301526148ff816148c6565b9050919050565b7f4a43206d697373696e67000000000000000000000000000000000000000000005f82015250565b5f61493a600a83613e33565b915061494582614906565b602082019050919050565b5f6020820190508181035f8301526149678161492e565b9050919050565b7f536f6c766572206d697373696e670000000000000000000000000000000000005f82015250565b5f6149a2600e83613e33565b91506149ad8261496e565b602082019050919050565b5f6020820190508181035f8301526149cf81614996565b9050919050565b7f4d65646961746f7273203c3d20300000000000000000000000000000000000005f82015250565b5f614a0a600e83613e33565b9150614a15826149d6565b602082019050919050565b5f6020820190508181035f830152614a37816149fe565b9050919050565b7f5250202f204a432073616d6500000000000000000000000000000000000000005f82015250565b5f614a72600c83613e33565b9150614a7d82614a3e565b602082019050919050565b5f6020820190508181035f830152614a9f81614a66565b9050919050565b7f4167726565206465706f736974206d75737420626520300000000000000000005f82015250565b5f614ada601783613e33565b9150614ae582614aa6565b602082019050919050565b5f6020820190508181035f830152614b0781614ace565b9050919050565b7f4d656469617465206465706f736974206d7573742062652030000000000000005f82015250565b5f614b42601983613e33565b9150614b4d82614b0e565b602082019050919050565b5f6020820190508181035f830152614b6f81614b36565b9050919050565b7f52500000000000000000000000000000000000000000000000000000000000005f82015250565b5f614baa600283613e33565b9150614bb582614b76565b602082019050919050565b5f6020820190508181035f830152614bd781614b9e565b9050919050565b7f4a430000000000000000000000000000000000000000000000000000000000005f82015250565b5f614c12600283613e33565b9150614c1d82614bde565b602082019050919050565b5f6020820190508181035f830152614c3f81614c06565b9050919050565b7f536f6c76657200000000000000000000000000000000000000000000000000005f82015250565b5f614c7a600683613e33565b9150614c8582614c46565b602082019050919050565b5f6020820190508181035f830152614ca781614c6e565b9050919050565b7f4d65646961746f727300000000000000000000000000000000000000000000005f82015250565b5f614ce2600983613e33565b9150614ced82614cae565b602082019050919050565b5f6020820190508181035f830152614d0f81614cd6565b9050919050565b7f4e487b71000000000000000000000000000000000000000000000000000000005f52603260045260245ffd5b7f4d65646961746f720000000000000000000000000000000000000000000000005f82015250565b5f614d77600883613e33565b9150614d8282614d43565b602082019050919050565b5f6020820190508181035f830152614da481614d6b565b9050919050565b5f614db58261342f565b91507fffffffffffffffffffffffffffffffffffffffffffffffffffffffffffffffff8203614de757614de661432f565b5b600182019050919050565b7f50726963650000000000000000000000000000000000000000000000000000005f82015250565b5f614e26600583613e33565b9150614e3182614df2565b602082019050919050565b5f6020820190508181035f830152614e5381614e1a565b9050919050565b7f5061796d656e74000000000000000000000000000000000000000000000000005f82015250565b5f614e8e600783613e33565b9150614e9982614e5a565b602082019050919050565b5f6020820190508181035f830152614ebb81614e82565b9050919050565b7f526573756c7473000000000000000000000000000000000000000000000000005f82015250565b5f614ef6600783613e33565b9150614f0182614ec2565b602082019050919050565b5f6020820190508181035f830152614f2381614eea565b9050919050565b7f4d6564696174696f6e00000000000000000000000000000000000000000000005f82015250565b5f614f5e600983613e33565b9150614f6982614f2a565b602082019050919050565b5f6020820190508181035f830152614f8b81614f52565b9050919050565b7f54696d656f7574000000000000000000000000000000000000000000000000005f82015250565b5f614fc6600783613e33565b9150614fd182614f92565b602082019050919050565b5f6020820190508181035f830152614ff381614fba565b9050919050565b7f436f6c6c61746572616c000000000000000000000000000000000000000000005f82015250565b5f61502e600a83613e33565b915061503982614ffa565b602082019050919050565b5f6020820190508181035f83015261505b81615022565b905091905056fea26469706673582212200cbaac918a055e26155c6f8928bc0fd83f3aa7d10079217d0aef114b4883297764736f6c63430008150033",
  "devdoc": {
    "events": {
      "Initialized(uint8)": {
        "details": "Triggered when the contract has been initialized or reinitialized."
      }
    },
    "kind": "dev",
    "methods": {
      "owner()": {
        "details": "Returns the address of the current owner."
      },
      "renounceOwnership()": {
        "details": "Leaves the contract without owner. It will not be possible to call `onlyOwner` functions. Can only be called by the current owner. NOTE: Renouncing ownership will leave the contract without an owner, thereby disabling any functionality that is only available to the owner."
      },
      "transferOwnership(address)": {
        "details": "Transfers ownership of the contract to a new account (`newOwner`). Can only be called by the current owner."
      }
    },
    "version": 1
  },
  "userdoc": {
    "kind": "user",
    "methods": {
      "acceptResult(string)": {
        "notice": "Judge Results"
      },
      "getAgreement(string)": {
        "notice": "Agreements"
      },
      "getDeal(string)": {
        "notice": "Deals"
      },
      "getJobCost(string)": {
        "notice": "Costings"
      },
      "getResult(string)": {
        "notice": "Post Results"
      },
      "hasDeal(string)": {
        "notice": "Checkers"
      },
      "initialize()": {
        "notice": "Init"
      },
      "mediationAcceptResult(string)": {
        "notice": "Mediati:"
      },
      "timeoutAgree(string)": {
        "notice": "Timeouts"
      }
    },
    "version": 1
  },
  "storageLayout": {
    "storage": [
      {
        "astId": 506,
        "contract": "contracts/CoopHiveStorage.sol:CoopHiveStorage",
        "label": "_owner",
        "offset": 0,
        "slot": "0",
        "type": "t_address"
      },
      {
        "astId": 640,
        "contract": "contracts/CoopHiveStorage.sol:CoopHiveStorage",
        "label": "controllerAddress",
        "offset": 0,
        "slot": "1",
        "type": "t_address"
      },
      {
        "astId": 643,
        "contract": "contracts/CoopHiveStorage.sol:CoopHiveStorage",
        "label": "canChangeControllerAddress",
        "offset": 20,
        "slot": "1",
        "type": "t_bool"
      },
      {
        "astId": 6,
        "contract": "contracts/CoopHiveStorage.sol:CoopHiveStorage",
        "label": "_initialized",
        "offset": 21,
        "slot": "1",
        "type": "t_uint8"
      },
      {
        "astId": 9,
        "contract": "contracts/CoopHiveStorage.sol:CoopHiveStorage",
        "label": "_initializing",
        "offset": 22,
        "slot": "1",
        "type": "t_bool"
      },
      {
        "astId": 1855,
        "contract": "contracts/CoopHiveStorage.sol:CoopHiveStorage",
        "label": "controllerAddress",
        "offset": 0,
        "slot": "2",
        "type": "t_address"
      },
      {
        "astId": 1858,
        "contract": "contracts/CoopHiveStorage.sol:CoopHiveStorage",
        "label": "canChangeControllerAddress",
        "offset": 20,
        "slot": "2",
        "type": "t_bool"
      },
      {
        "astId": 1863,
        "contract": "contracts/CoopHiveStorage.sol:CoopHiveStorage",
        "label": "deals",
        "offset": 0,
        "slot": "3",
        "type": "t_mapping(t_string_memory_ptr,t_struct(Deal)3436_storage)"
      },
      {
        "astId": 1868,
        "contract": "contracts/CoopHiveStorage.sol:CoopHiveStorage",
        "label": "dealsForParty",
        "offset": 0,
        "slot": "4",
        "type": "t_mapping(t_address,t_array(t_string_storage)dyn_storage)"
      },
      {
        "astId": 1873,
        "contract": "contracts/CoopHiveStorage.sol:CoopHiveStorage",
        "label": "agreements",
        "offset": 0,
        "slot": "5",
        "type": "t_mapping(t_string_memory_ptr,t_struct(Agreement)3475_storage)"
      },
      {
        "astId": 1878,
        "contract": "contracts/CoopHiveStorage.sol:CoopHiveStorage",
        "label": "results",
        "offset": 0,
        "slot": "6",
        "type": "t_mapping(t_string_memory_ptr,t_struct(Result)3445_storage)"
      },
      {
        "astId": 1883,
        "contract": "contracts/CoopHiveStorage.sol:CoopHiveStorage",
        "label": "mediations",
        "offset": 0,
        "slot": "7",
        "type": "t_mapping(t_string_memory_ptr,t_struct(Result)3445_storage)"
      }
    ],
    "types": {
      "t_address": {
        "encoding": "inplace",
        "label": "address",
        "numberOfBytes": "20"
      },
      "t_array(t_address)dyn_storage": {
        "base": "t_address",
        "encoding": "dynamic_array",
        "label": "address[]",
        "numberOfBytes": "32"
      },
      "t_array(t_string_storage)dyn_storage": {
        "base": "t_string_storage",
        "encoding": "dynamic_array",
        "label": "string[]",
        "numberOfBytes": "32"
      },
      "t_bool": {
        "encoding": "inplace",
        "label": "bool",
        "numberOfBytes": "1"
      },
      "t_enum(AgreementState)3376": {
        "encoding": "inplace",
        "label": "enum SharedStructs.AgreementState",
        "numberOfBytes": "1"
      },
      "t_mapping(t_address,t_array(t_string_storage)dyn_storage)": {
        "encoding": "mapping",
        "key": "t_address",
        "label": "mapping(address => string[])",
        "numberOfBytes": "32",
        "value": "t_array(t_string_storage)dyn_storage"
      },
      "t_mapping(t_string_memory_ptr,t_struct(Agreement)3475_storage)": {
        "encoding": "mapping",
        "key": "t_string_memory_ptr",
        "label": "mapping(string => struct SharedStructs.Agreement)",
        "numberOfBytes": "32",
        "value": "t_struct(Agreement)3475_storage"
      },
      "t_mapping(t_string_memory_ptr,t_struct(Deal)3436_storage)": {
        "encoding": "mapping",
        "key": "t_string_memory_ptr",
        "label": "mapping(string => struct SharedStructs.Deal)",
        "numberOfBytes": "32",
        "value": "t_struct(Deal)3436_storage"
      },
      "t_mapping(t_string_memory_ptr,t_struct(Result)3445_storage)": {
        "encoding": "mapping",
        "key": "t_string_memory_ptr",
        "label": "mapping(string => struct SharedStructs.Result)",
        "numberOfBytes": "32",
        "value": "t_struct(Result)3445_storage"
      },
      "t_string_memory_ptr": {
        "encoding": "bytes",
        "label": "string",
        "numberOfBytes": "32"
      },
      "t_string_storage": {
        "encoding": "bytes",
        "label": "string",
        "numberOfBytes": "32"
      },
      "t_struct(Agreement)3475_storage": {
        "encoding": "inplace",
        "label": "struct SharedStructs.Agreement",
        "members": [
          {
            "astId": 3448,
            "contract": "contracts/CoopHiveStorage.sol:CoopHiveStorage",
            "label": "state",
            "offset": 0,
            "slot": "0",
            "type": "t_enum(AgreementState)3376"
          },
          {
            "astId": 3450,
            "contract": "contracts/CoopHiveStorage.sol:CoopHiveStorage",
            "label": "resourceProviderAgreedAt",
            "offset": 0,
            "slot": "1",
            "type": "t_uint256"
          },
          {
            "astId": 3452,
            "contract": "contracts/CoopHiveStorage.sol:CoopHiveStorage",
            "label": "jobCreatorAgreedAt",
            "offset": 0,
            "slot": "2",
            "type": "t_uint256"
          },
          {
            "astId": 3454,
            "contract": "contracts/CoopHiveStorage.sol:CoopHiveStorage",
            "label": "dealCreatedAt",
            "offset": 0,
            "slot": "3",
            "type": "t_uint256"
          },
          {
            "astId": 3456,
            "contract": "contracts/CoopHiveStorage.sol:CoopHiveStorage",
            "label": "dealAgreedAt",
            "offset": 0,
            "slot": "4",
            "type": "t_uint256"
          },
          {
            "astId": 3458,
            "contract": "contracts/CoopHiveStorage.sol:CoopHiveStorage",
            "label": "resultsSubmittedAt",
            "offset": 0,
            "slot": "5",
            "type": "t_uint256"
          },
          {
            "astId": 3460,
            "contract": "contracts/CoopHiveStorage.sol:CoopHiveStorage",
            "label": "resultsAcceptedAt",
            "offset": 0,
            "slot": "6",
            "type": "t_uint256"
          },
          {
            "astId": 3462,
            "contract": "contracts/CoopHiveStorage.sol:CoopHiveStorage",
            "label": "resultsCheckedAt",
            "offset": 0,
            "slot": "7",
            "type": "t_uint256"
          },
          {
            "astId": 3464,
            "contract": "contracts/CoopHiveStorage.sol:CoopHiveStorage",
            "label": "mediationAcceptedAt",
            "offset": 0,
            "slot": "8",
            "type": "t_uint256"
          },
          {
            "astId": 3466,
            "contract": "contracts/CoopHiveStorage.sol:CoopHiveStorage",
            "label": "mediationRejectedAt",
            "offset": 0,
            "slot": "9",
            "type": "t_uint256"
          },
          {
            "astId": 3468,
            "contract": "contracts/CoopHiveStorage.sol:CoopHiveStorage",
            "label": "timeoutAgreeAt",
            "offset": 0,
            "slot": "10",
            "type": "t_uint256"
          },
          {
            "astId": 3470,
            "contract": "contracts/CoopHiveStorage.sol:CoopHiveStorage",
            "label": "timeoutSubmitResultsAt",
            "offset": 0,
            "slot": "11",
            "type": "t_uint256"
          },
          {
            "astId": 3472,
            "contract": "contracts/CoopHiveStorage.sol:CoopHiveStorage",
            "label": "timeoutJudgeResultsAt",
            "offset": 0,
            "slot": "12",
            "type": "t_uint256"
          },
          {
            "astId": 3474,
            "contract": "contracts/CoopHiveStorage.sol:CoopHiveStorage",
            "label": "timeoutMediateResultsAt",
            "offset": 0,
            "slot": "13",
            "type": "t_uint256"
          }
        ],
        "numberOfBytes": "448"
      },
      "t_struct(Deal)3436_storage": {
        "encoding": "inplace",
        "label": "struct SharedStructs.Deal",
        "members": [
          {
            "astId": 3426,
            "contract": "contracts/CoopHiveStorage.sol:CoopHiveStorage",
            "label": "dealId",
            "offset": 0,
            "slot": "0",
            "type": "t_string_storage"
          },
          {
            "astId": 3429,
            "contract": "contracts/CoopHiveStorage.sol:CoopHiveStorage",
            "label": "members",
            "offset": 0,
            "slot": "1",
            "type": "t_struct(DealMembers)3397_storage"
          },
          {
            "astId": 3432,
            "contract": "contracts/CoopHiveStorage.sol:CoopHiveStorage",
            "label": "timeouts",
            "offset": 0,
            "slot": "5",
            "type": "t_struct(DealTimeouts)3415_storage"
          },
          {
            "astId": 3435,
            "contract": "contracts/CoopHiveStorage.sol:CoopHiveStorage",
            "label": "pricing",
            "offset": 0,
            "slot": "13",
            "type": "t_struct(DealPricing)3424_storage"
          }
        ],
        "numberOfBytes": "544"
      },
      "t_struct(DealMembers)3397_storage": {
        "encoding": "inplace",
        "label": "struct SharedStructs.DealMembers",
        "members": [
          {
            "astId": 3389,
            "contract": "contracts/CoopHiveStorage.sol:CoopHiveStorage",
            "label": "solver",
            "offset": 0,
            "slot": "0",
            "type": "t_address"
          },
          {
            "astId": 3391,
            "contract": "contracts/CoopHiveStorage.sol:CoopHiveStorage",
            "label": "jobCreator",
            "offset": 0,
            "slot": "1",
            "type": "t_address"
          },
          {
            "astId": 3393,
            "contract": "contracts/CoopHiveStorage.sol:CoopHiveStorage",
            "label": "resourceProvider",
            "offset": 0,
            "slot": "2",
            "type": "t_address"
          },
          {
            "astId": 3396,
            "contract": "contracts/CoopHiveStorage.sol:CoopHiveStorage",
            "label": "mediators",
            "offset": 0,
            "slot": "3",
            "type": "t_array(t_address)dyn_storage"
          }
        ],
        "numberOfBytes": "128"
      },
      "t_struct(DealPricing)3424_storage": {
        "encoding": "inplace",
        "label": "struct SharedStructs.DealPricing",
        "members": [
          {
            "astId": 3417,
            "contract": "contracts/CoopHiveStorage.sol:CoopHiveStorage",
            "label": "instructionPrice",
            "offset": 0,
            "slot": "0",
            "type": "t_uint256"
          },
          {
            "astId": 3419,
            "contract": "contracts/CoopHiveStorage.sol:CoopHiveStorage",
            "label": "paymentCollateral",
            "offset": 0,
            "slot": "1",
            "type": "t_uint256"
          },
          {
            "astId": 3421,
            "contract": "contracts/CoopHiveStorage.sol:CoopHiveStorage",
            "label": "resultsCollateralMultiple",
            "offset": 0,
            "slot": "2",
            "type": "t_uint256"
          },
          {
            "astId": 3423,
            "contract": "contracts/CoopHiveStorage.sol:CoopHiveStorage",
            "label": "mediationFee",
            "offset": 0,
            "slot": "3",
            "type": "t_uint256"
          }
        ],
        "numberOfBytes": "128"
      },
      "t_struct(DealTimeout)3402_storage": {
        "encoding": "inplace",
        "label": "struct SharedStructs.DealTimeout",
        "members": [
          {
            "astId": 3399,
            "contract": "contracts/CoopHiveStorage.sol:CoopHiveStorage",
            "label": "timeout",
            "offset": 0,
            "slot": "0",
            "type": "t_uint256"
          },
          {
            "astId": 3401,
            "contract": "contracts/CoopHiveStorage.sol:CoopHiveStorage",
            "label": "collateral",
            "offset": 0,
            "slot": "1",
            "type": "t_uint256"
          }
        ],
        "numberOfBytes": "64"
      },
      "t_struct(DealTimeouts)3415_storage": {
        "encoding": "inplace",
        "label": "struct SharedStructs.DealTimeouts",
        "members": [
          {
            "astId": 3405,
            "contract": "contracts/CoopHiveStorage.sol:CoopHiveStorage",
            "label": "agree",
            "offset": 0,
            "slot": "0",
            "type": "t_struct(DealTimeout)3402_storage"
          },
          {
            "astId": 3408,
            "contract": "contracts/CoopHiveStorage.sol:CoopHiveStorage",
            "label": "submitResults",
            "offset": 0,
            "slot": "2",
            "type": "t_struct(DealTimeout)3402_storage"
          },
          {
            "astId": 3411,
            "contract": "contracts/CoopHiveStorage.sol:CoopHiveStorage",
            "label": "judgeResults",
            "offset": 0,
            "slot": "4",
            "type": "t_struct(DealTimeout)3402_storage"
          },
          {
            "astId": 3414,
            "contract": "contracts/CoopHiveStorage.sol:CoopHiveStorage",
            "label": "mediateResults",
            "offset": 0,
            "slot": "6",
            "type": "t_struct(DealTimeout)3402_storage"
          }
        ],
        "numberOfBytes": "256"
      },
      "t_struct(Result)3445_storage": {
        "encoding": "inplace",
        "label": "struct SharedStructs.Result",
        "members": [
          {
            "astId": 3438,
            "contract": "contracts/CoopHiveStorage.sol:CoopHiveStorage",
            "label": "dealId",
            "offset": 0,
            "slot": "0",
            "type": "t_string_storage"
          },
          {
            "astId": 3440,
            "contract": "contracts/CoopHiveStorage.sol:CoopHiveStorage",
            "label": "resultsId",
            "offset": 0,
            "slot": "1",
            "type": "t_string_storage"
          },
          {
            "astId": 3442,
            "contract": "contracts/CoopHiveStorage.sol:CoopHiveStorage",
            "label": "dataId",
            "offset": 0,
            "slot": "2",
            "type": "t_string_storage"
          },
          {
            "astId": 3444,
            "contract": "contracts/CoopHiveStorage.sol:CoopHiveStorage",
            "label": "instructionCount",
            "offset": 0,
            "slot": "3",
            "type": "t_uint256"
          }
        ],
        "numberOfBytes": "128"
      },
      "t_uint256": {
        "encoding": "inplace",
        "label": "uint256",
        "numberOfBytes": "32"
      },
      "t_uint8": {
        "encoding": "inplace",
        "label": "uint8",
        "numberOfBytes": "1"
      }
    }
  }
}